{
  "_format": "hh3-artifact-1",
  "contractName": "WebOfTrust",
  "sourceName": "contracts/WebOfTrust.sol",
  "abi": [
    {
      "inputs": [
        {
          "internalType": "uint256",
          "name": "_requiredStake",
          "type": "uint256"
        }
      ],
      "stateMutability": "nonpayable",
      "type": "constructor"
    },
    {
      "anonymous": false,
      "inputs": [
        {
          "indexed": false,
          "internalType": "bytes32",
          "name": "code",
          "type": "bytes32"
        },
        {
          "indexed": true,
          "internalType": "address",
          "name": "creator",
          "type": "address"
        }
      ],
      "name": "InviteCodeCreated",
      "type": "event"
    },
    {
      "anonymous": false,
      "inputs": [
        {
          "indexed": true,
          "internalType": "address",
          "name": "member",
          "type": "address"
        },
        {
          "indexed": false,
          "internalType": "address",
          "name": "invitedBy",
          "type": "address"
        }
      ],
      "name": "MemberRegistered",
      "type": "event"
    },
    {
      "inputs": [],
      "name": "DELEGATED_SLASH_PERCENT",
      "outputs": [
        {
          "internalType": "uint256",
          "name": "",
          "type": "uint256"
        }
      ],
      "stateMutability": "view",
      "type": "function"
    },
    {
      "inputs": [],
      "name": "GENESIS_MEMBER",
      "outputs": [
        {
          "internalType": "address",
          "name": "",
          "type": "address"
        }
      ],
      "stateMutability": "view",
      "type": "function"
    },
    {
      "inputs": [],
      "name": "PRIMARY_SLASH_PERCENT",
      "outputs": [
        {
          "internalType": "uint256",
          "name": "",
          "type": "uint256"
        }
      ],
      "stateMutability": "view",
      "type": "function"
    },
    {
      "inputs": [],
      "name": "createInviteCode",
      "outputs": [
        {
          "internalType": "bytes32",
          "name": "",
          "type": "bytes32"
        }
      ],
      "stateMutability": "nonpayable",
      "type": "function"
    },
    {
      "inputs": [
        {
          "internalType": "bytes32",
          "name": "",
          "type": "bytes32"
        }
      ],
      "name": "inviterOfCode",
      "outputs": [
        {
          "internalType": "address",
          "name": "",
          "type": "address"
        }
      ],
      "stateMutability": "view",
      "type": "function"
    },
    {
      "inputs": [
        {
          "internalType": "address",
          "name": "_member",
          "type": "address"
        }
      ],
      "name": "isMemberActive",
      "outputs": [
        {
          "internalType": "bool",
          "name": "",
          "type": "bool"
        }
      ],
      "stateMutability": "view",
      "type": "function"
    },
    {
      "inputs": [
        {
          "internalType": "address",
          "name": "",
          "type": "address"
        }
      ],
      "name": "members",
      "outputs": [
        {
          "internalType": "uint256",
          "name": "stakedAmount",
          "type": "uint256"
        },
        {
          "internalType": "address",
          "name": "invitedBy",
          "type": "address"
        },
        {
          "internalType": "bool",
          "name": "isActive",
          "type": "bool"
        }
      ],
      "stateMutability": "view",
      "type": "function"
    },
    {
      "inputs": [
        {
          "internalType": "bytes32",
          "name": "_inviteCode",
          "type": "bytes32"
        }
      ],
      "name": "register",
      "outputs": [],
      "stateMutability": "payable",
      "type": "function"
    },
    {
      "inputs": [
        {
          "internalType": "address",
          "name": "_reviewer",
          "type": "address"
        }
      ],
      "name": "reportBadReview",
      "outputs": [],
      "stateMutability": "nonpayable",
      "type": "function"
    },
    {
      "inputs": [],
      "name": "requiredStake",
      "outputs": [
        {
          "internalType": "uint256",
          "name": "",
          "type": "uint256"
        }
      ],
      "stateMutability": "view",
      "type": "function"
    }
  ],
  "bytecode": "0x60a060405234801561000f575f80fd5b5060405161111d38038061111d8339818101604052810190610031919061018a565b806002819055503373ffffffffffffffffffffffffffffffffffffffff1660808173ffffffffffffffffffffffffffffffffffffffff168152505060405180606001604052805f81526020015f73ffffffffffffffffffffffffffffffffffffffff168152602001600115158152505f803373ffffffffffffffffffffffffffffffffffffffff1673ffffffffffffffffffffffffffffffffffffffff1681526020019081526020015f205f820151815f01556020820151816001015f6101000a81548173ffffffffffffffffffffffffffffffffffffffff021916908373ffffffffffffffffffffffffffffffffffffffff16021790555060408201518160010160146101000a81548160ff021916908315150217905550905050506101b5565b5f80fd5b5f819050919050565b61016981610157565b8114610173575f80fd5b50565b5f8151905061018481610160565b92915050565b5f6020828403121561019f5761019e610153565b5b5f6101ac84828501610176565b91505092915050565b608051610f496101d45f395f818161053c01526106970152610f495ff3fe608060405260043610610090575f3560e01c80636731764711610058578063673176471461018a5780637214342c146101c657806396df73e4146101f0578063c82f43171461021a578063e1fa8e841461024457610090565b806308ae4b0c14610094578063178a77be146100d257806319cb355d146100fc5780631d58cdc914610126578063665613521461014e575b5f80fd5b34801561009f575f80fd5b506100ba60048036038101906100b591906109fb565b610260565b6040516100c993929190610a67565b60405180910390f35b3480156100dd575f80fd5b506100e66102b1565b6040516100f39190610ab4565b60405180910390f35b348015610107575f80fd5b5061011061040e565b60405161011d9190610acd565b60405180910390f35b348015610131575f80fd5b5061014c600480360381019061014791906109fb565b610414565b005b348015610159575f80fd5b50610174600480360381019061016f9190610b10565b610610565b6040516101819190610b3b565b60405180910390f35b348015610195575f80fd5b506101b060048036038101906101ab91906109fb565b610640565b6040516101bd9190610b54565b60405180910390f35b3480156101d1575f80fd5b506101da610695565b6040516101e79190610b3b565b60405180910390f35b3480156101fb575f80fd5b506102046106b9565b6040516102119190610acd565b60405180910390f35b348015610225575f80fd5b5061022e6106be565b60405161023b9190610acd565b60405180910390f35b61025e60048036038101906102599190610b10565b6106c3565b005b5f602052805f5260405f205f91509050805f015490806001015f9054906101000a900473ffffffffffffffffffffffffffffffffffffffff16908060010160149054906101000a900460ff16905083565b5f805f3373ffffffffffffffffffffffffffffffffffffffff1673ffffffffffffffffffffffffffffffffffffffff1681526020019081526020015f2060010160149054906101000a900460ff1661033e576040517f08c379a000000000000000000000000000000000000000000000000000000000815260040161033590610bc7565b60405180910390fd5b5f3342604051602001610352929190610c4a565b6040516020818303038152906040528051906020012090503360015f8381526020019081526020015f205f6101000a81548173ffffffffffffffffffffffffffffffffffffffff021916908373ffffffffffffffffffffffffffffffffffffffff1602179055503373ffffffffffffffffffffffffffffffffffffffff167f3203f48922b35ce1cb7f5245f0792898232f609330565a7d79069fad5801eb60826040516103ff9190610ab4565b60405180910390a28091505090565b60025481565b5f805f8373ffffffffffffffffffffffffffffffffffffffff1673ffffffffffffffffffffffffffffffffffffffff1681526020019081526020015f2090508060010160149054906101000a900460ff166104a4576040517f08c379a000000000000000000000000000000000000000000000000000000000815260040161049b90610cbf565b60405180910390fd5b5f6064600a835f01546104b79190610d0a565b6104c19190610d78565b905080825f015f8282546104d59190610da8565b925050819055505f826001015f9054906101000a900473ffffffffffffffffffffffffffffffffffffffff1690505f73ffffffffffffffffffffffffffffffffffffffff168173ffffffffffffffffffffffffffffffffffffffff161415801561058b57507f000000000000000000000000000000000000000000000000000000000000000073ffffffffffffffffffffffffffffffffffffffff168173ffffffffffffffffffffffffffffffffffffffff1614155b1561060a575f805f8373ffffffffffffffffffffffffffffffffffffffff1673ffffffffffffffffffffffffffffffffffffffff1681526020019081526020015f2090505f60646005835f01546105e29190610d0a565b6105ec9190610d78565b905080825f015f8282546106009190610da8565b9250508190555050505b50505050565b6001602052805f5260405f205f915054906101000a900473ffffffffffffffffffffffffffffffffffffffff1681565b5f805f8373ffffffffffffffffffffffffffffffffffffffff1673ffffffffffffffffffffffffffffffffffffffff1681526020019081526020015f2060010160149054906101000a900460ff169050919050565b7f000000000000000000000000000000000000000000000000000000000000000081565b600581565b600a81565b600254341015610708576040517f08c379a00000000000000000000000000000000000000000000000000000000081526004016106ff90610e25565b60405180910390fd5b5f803373ffffffffffffffffffffffffffffffffffffffff1673ffffffffffffffffffffffffffffffffffffffff1681526020019081526020015f2060010160149054906101000a900460ff1615610795576040517f08c379a000000000000000000000000000000000000000000000000000000000815260040161078c90610e8d565b60405180910390fd5b5f60015f8381526020019081526020015f205f9054906101000a900473ffffffffffffffffffffffffffffffffffffffff1690505f73ffffffffffffffffffffffffffffffffffffffff168173ffffffffffffffffffffffffffffffffffffffff1603610837576040517f08c379a000000000000000000000000000000000000000000000000000000000815260040161082e90610ef5565b60405180910390fd5b60015f8381526020019081526020015f205f6101000a81549073ffffffffffffffffffffffffffffffffffffffff021916905560405180606001604052803481526020018273ffffffffffffffffffffffffffffffffffffffff168152602001600115158152505f803373ffffffffffffffffffffffffffffffffffffffff1673ffffffffffffffffffffffffffffffffffffffff1681526020019081526020015f205f820151815f01556020820151816001015f6101000a81548173ffffffffffffffffffffffffffffffffffffffff021916908373ffffffffffffffffffffffffffffffffffffffff16021790555060408201518160010160146101000a81548160ff0219169083151502179055509050503373ffffffffffffffffffffffffffffffffffffffff167f3a5a00ec423040dabe80f57799a58598c7a3b374fe3bcc917901b4867b30c908826040516109919190610b3b565b60405180910390a25050565b5f80fd5b5f73ffffffffffffffffffffffffffffffffffffffff82169050919050565b5f6109ca826109a1565b9050919050565b6109da816109c0565b81146109e4575f80fd5b50565b5f813590506109f5816109d1565b92915050565b5f60208284031215610a1057610a0f61099d565b5b5f610a1d848285016109e7565b91505092915050565b5f819050919050565b610a3881610a26565b82525050565b610a47816109c0565b82525050565b5f8115159050919050565b610a6181610a4d565b82525050565b5f606082019050610a7a5f830186610a2f565b610a876020830185610a3e565b610a946040830184610a58565b949350505050565b5f819050919050565b610aae81610a9c565b82525050565b5f602082019050610ac75f830184610aa5565b92915050565b5f602082019050610ae05f830184610a2f565b92915050565b610aef81610a9c565b8114610af9575f80fd5b50565b5f81359050610b0a81610ae6565b92915050565b5f60208284031215610b2557610b2461099d565b5b5f610b3284828501610afc565b91505092915050565b5f602082019050610b4e5f830184610a3e565b92915050565b5f602082019050610b675f830184610a58565b92915050565b5f82825260208201905092915050565b7f4e6f7420616e20616374697665206d656d6265720000000000000000000000005f82015250565b5f610bb1601483610b6d565b9150610bbc82610b7d565b602082019050919050565b5f6020820190508181035f830152610bde81610ba5565b9050919050565b5f8160601b9050919050565b5f610bfb82610be5565b9050919050565b5f610c0c82610bf1565b9050919050565b610c24610c1f826109c0565b610c02565b82525050565b5f819050919050565b610c44610c3f82610a26565b610c2a565b82525050565b5f610c558285610c13565b601482019150610c658284610c33565b6020820191508190509392505050565b7f5265766965776572206e6f7420616374697665000000000000000000000000005f82015250565b5f610ca9601383610b6d565b9150610cb482610c75565b602082019050919050565b5f6020820190508181035f830152610cd681610c9d565b9050919050565b7f4e487b71000000000000000000000000000000000000000000000000000000005f52601160045260245ffd5b5f610d1482610a26565b9150610d1f83610a26565b9250828202610d2d81610a26565b91508282048414831517610d4457610d43610cdd565b5b5092915050565b7f4e487b71000000000000000000000000000000000000000000000000000000005f52601260045260245ffd5b5f610d8282610a26565b9150610d8d83610a26565b925082610d9d57610d9c610d4b565b5b828204905092915050565b5f610db282610a26565b9150610dbd83610a26565b9250828203905081811115610dd557610dd4610cdd565b5b92915050565b7f496e73756666696369656e74207374616b6500000000000000000000000000005f82015250565b5f610e0f601283610b6d565b9150610e1a82610ddb565b602082019050919050565b5f6020820190508181035f830152610e3c81610e03565b9050919050565b7f416c7265616479207265676973746572656400000000000000000000000000005f82015250565b5f610e77601283610b6d565b9150610e8282610e43565b602082019050919050565b5f6020820190508181035f830152610ea481610e6b565b9050919050565b7f496e76616c6964206f72207573656420636f64650000000000000000000000005f82015250565b5f610edf601483610b6d565b9150610eea82610eab565b602082019050919050565b5f6020820190508181035f830152610f0c81610ed3565b905091905056fea2646970667358221220fe17be32798891b2790ace24ff226483a8541eb8c500dd1e5126298b1400baaa64736f6c63430008180033",
  "linkReferences": {},
  "deployedLinkReferences": {},
  "immutableReferences": {
    "323": [
      {
        "length": 32,
        "start": 1340
      },
      {
        "length": 32,
        "start": 1687
      }
    ]
  },
  "inputSourceName": "project/contracts/WebOfTrust.sol",
  "buildInfoId": "solc-0_8_24-ab7a3db9f3e5c24947d8834d5e1f3bbcfa16c75c"
}