{"project/contracts/ReviewOracle.sol":{"ReviewOracle":{"abi":[{"inputs":[{"internalType":"address","name":"_webOfTrust","type":"address"},{"internalType":"address","name":"_actionRegistry","type":"address"}],"stateMutability":"nonpayable","type":"constructor"},{"anonymous":false,"inputs":[{"indexed":true,"internalType":"uint256","name":"taskId","type":"uint256"},{"indexed":false,"internalType":"bytes32","name":"actionHash","type":"bytes32"}],"name":"ActionFlagged","type":"event"},{"anonymous":false,"inputs":[{"indexed":true,"internalType":"uint256","name":"taskId","type":"uint256"},{"indexed":true,"internalType":"address","name":"voter","type":"address"},{"indexed":false,"internalType":"bool","name":"approve","type":"bool"}],"name":"VoteCast","type":"event"},{"anonymous":false,"inputs":[{"indexed":true,"internalType":"uint256","name":"taskId","type":"uint256"},{"indexed":false,"internalType":"bytes32","name":"actionHash","type":"bytes32"},{"indexed":false,"internalType":"bool","name":"blacklisted","type":"bool"}],"name":"VoteResolved","type":"event"},{"inputs":[],"name":"actionRegistry","outputs":[{"internalType":"contract ActionRegistry","name":"","type":"address"}],"stateMutability":"view","type":"function"},{"inputs":[{"internalType":"uint256","name":"_taskId","type":"uint256"},{"internalType":"bool","name":"_approveBlacklist","type":"bool"}],"name":"castBlacklistVote","outputs":[],"stateMutability":"nonpayable","type":"function"},{"inputs":[{"internalType":"bytes32","name":"_actionHash","type":"bytes32"}],"name":"flagActionForReview","outputs":[],"stateMutability":"nonpayable","type":"function"},{"inputs":[{"internalType":"uint256","name":"","type":"uint256"},{"internalType":"address","name":"","type":"address"}],"name":"hasVoted","outputs":[{"internalType":"bool","name":"","type":"bool"}],"stateMutability":"view","type":"function"},{"inputs":[{"internalType":"uint256","name":"_taskId","type":"uint256"}],"name":"resolveBlacklistVote","outputs":[],"stateMutability":"nonpayable","type":"function"},{"inputs":[{"internalType":"uint256","name":"","type":"uint256"}],"name":"tasks","outputs":[{"internalType":"bytes32","name":"actionHash","type":"bytes32"},{"internalType":"uint256","name":"votesForBlacklist","type":"uint256"},{"internalType":"bool","name":"isResolved","type":"bool"}],"stateMutability":"view","type":"function"},{"inputs":[],"name":"webOfTrust","outputs":[{"internalType":"contract WebOfTrust","name":"","type":"address"}],"stateMutability":"view","type":"function"}],"evm":{"bytecode":{"linkReferences":{},"object":"608060405234801561000f575f80fd5b5060405161080538038061080583398101604081905261002e91610079565b5f80546001600160a01b039384166001600160a01b031991821617909155600180549290931691161790556100aa565b80516001600160a01b0381168114610074575f80fd5b919050565b5f806040838503121561008a575f80fd5b6100938361005e565b91506100a16020840161005e565b90509250929050565b61074e806100b75f395ff3fe608060405234801561000f575f80fd5b506004361061007a575f3560e01c80637c20aeba116100585780637c20aeba146100ff5780638d97767214610112578063e4245a3114610142578063e4e3967814610155575f80fd5b806301dbd0f81461007e5780632170a8f3146100ad57806343859632146100c2575b5f80fd5b5f54610090906001600160a01b031681565b6040516001600160a01b0390911681526020015b60405180910390f35b6100c06100bb36600461063b565b610168565b005b6100ef6100d0366004610652565b600360209081525f928352604080842090915290825290205460ff1681565b60405190151581526020016100a4565b6100c061010d36600461069b565b610254565b61012561012036600461063b565b610492565b6040805193845260208401929092521515908201526060016100a4565b6100c061015036600461063b565b6104c6565b600154610090906001600160a01b031681565b60028054604080516060810182528481525f60208083018281528385018381526001870188559690925291517f405787fa12a823e0f2b7631cc41b3ba8828b3321ca811111fa75cd3aa3bb5ace600386029081019190915590517f405787fa12a823e0f2b7631cc41b3ba8828b3321ca811111fa75cd3aa3bb5acf82015593517f405787fa12a823e0f2b7631cc41b3ba8828b3321ca811111fa75cd3aa3bb5ad0909401805460ff19169415159490941790935551838152909182917fd7634eb241af278b842df0c14f3313d5a6b0517f382fa0988194c6d741c0f06191015b60405180910390a25050565b5f54604051636731764760e01b81523360048201526001600160a01b0390911690636731764790602401602060405180830381865afa158015610299573d5f803e3d5ffd5b505050506040513d601f19601f820116820180604052508101906102bd91906106be565b6103055760405162461bcd60e51b81526020600482015260146024820152732737ba1030b71030b1ba34bb329036b2b6b132b960611b60448201526064015b60405180910390fd5b60025482106103485760405162461bcd60e51b815260206004820152600f60248201526e125b9d985b1a59081d185cdac81251608a1b60448201526064016102fc565b5f6002838154811061035c5761035c6106e0565b5f9182526020909120600390910201600281015490915060ff16156103bb5760405162461bcd60e51b815260206004820152601560248201527415185cdac8185b1c9958591e481c995cdbdb1d9959605a1b60448201526064016102fc565b5f83815260036020908152604080832033845290915290205460ff16156104145760405162461bcd60e51b815260206004820152600d60248201526c105b1c9958591e481d9bdd1959609a1b60448201526064016102fc565b5f8381526003602090815260408083203384529091529020805460ff19166001179055811561045457600181018054905f61044e836106f4565b91905055505b6040518215158152339084907fe71fcdac32df1877c1700e7bda2a03157e20993363a28fc35ac495cefc76e4d49060200160405180910390a3505050565b600281815481106104a1575f80fd5b5f91825260209091206003909102018054600182015460029092015490925060ff1683565b60025481106105095760405162461bcd60e51b815260206004820152600f60248201526e125b9d985b1a59081d185cdac81251608a1b60448201526064016102fc565b5f6002828154811061051d5761051d6106e0565b5f9182526020909120600390910201600281015490915060ff161561057c5760405162461bcd60e51b815260206004820152601560248201527415185cdac8185b1c9958591e481c995cdbdb1d9959605a1b60448201526064016102fc565b600381600101541061063757600154815460405163e67f422160e01b81526001600160a01b039092169163e67f4221916105bc9160040190815260200190565b5f604051808303815f87803b1580156105d3575f80fd5b505af11580156105e5573d5f803e3d5ffd5b50505060028201805460ff1916600190811790915582546040518593507f29dd4c2456e33743521ee95ede4ab034351347396e206001ee314d9652316238926102489282521515602082015260400190565b5050565b5f6020828403121561064b575f80fd5b5035919050565b5f8060408385031215610663575f80fd5b8235915060208301356001600160a01b0381168114610680575f80fd5b809150509250929050565b8015158114610698575f80fd5b50565b5f80604083850312156106ac575f80fd5b8235915060208301356106808161068b565b5f602082840312156106ce575f80fd5b81516106d98161068b565b9392505050565b634e487b7160e01b5f52603260045260245ffd5b5f6001820161071157634e487b7160e01b5f52601160045260245ffd5b506001019056fea26469706673582212209770a7e6ba301e0ebaf3467d18ea4efc7a0e600e2fd1081b3696fafaa9dd2f0464736f6c63430008180033","opcodes":"PUSH1 0x80 PUSH1 0x40 MSTORE CALLVALUE DUP1 ISZERO PUSH2 0xF JUMPI PUSH0 DUP1 REVERT JUMPDEST POP PUSH1 0x40 MLOAD PUSH2 0x805 CODESIZE SUB DUP1 PUSH2 0x805 DUP4 CODECOPY DUP2 ADD PUSH1 0x40 DUP2 SWAP1 MSTORE PUSH2 0x2E SWAP2 PUSH2 0x79 JUMP JUMPDEST PUSH0 DUP1 SLOAD PUSH1 0x1 PUSH1 0x1 PUSH1 0xA0 SHL SUB SWAP4 DUP5 AND PUSH1 0x1 PUSH1 0x1 PUSH1 0xA0 SHL SUB NOT SWAP2 DUP3 AND OR SWAP1 SWAP2 SSTORE PUSH1 0x1 DUP1 SLOAD SWAP3 SWAP1 SWAP4 AND SWAP2 AND OR SWAP1 SSTORE PUSH2 0xAA JUMP JUMPDEST DUP1 MLOAD PUSH1 0x1 PUSH1 0x1 PUSH1 0xA0 SHL SUB DUP2 AND DUP2 EQ PUSH2 0x74 JUMPI PUSH0 DUP1 REVERT JUMPDEST SWAP2 SWAP1 POP JUMP JUMPDEST PUSH0 DUP1 PUSH1 0x40 DUP4 DUP6 SUB SLT ISZERO PUSH2 0x8A JUMPI PUSH0 DUP1 REVERT JUMPDEST PUSH2 0x93 DUP4 PUSH2 0x5E JUMP JUMPDEST SWAP2 POP PUSH2 0xA1 PUSH1 0x20 DUP5 ADD PUSH2 0x5E JUMP JUMPDEST SWAP1 POP SWAP3 POP SWAP3 SWAP1 POP JUMP JUMPDEST PUSH2 0x74E DUP1 PUSH2 0xB7 PUSH0 CODECOPY PUSH0 RETURN INVALID PUSH1 0x80 PUSH1 0x40 MSTORE CALLVALUE DUP1 ISZERO PUSH2 0xF JUMPI PUSH0 DUP1 REVERT JUMPDEST POP PUSH1 0x4 CALLDATASIZE LT PUSH2 0x7A JUMPI PUSH0 CALLDATALOAD PUSH1 0xE0 SHR DUP1 PUSH4 0x7C20AEBA GT PUSH2 0x58 JUMPI DUP1 PUSH4 0x7C20AEBA EQ PUSH2 0xFF JUMPI DUP1 PUSH4 0x8D977672 EQ PUSH2 0x112 JUMPI DUP1 PUSH4 0xE4245A31 EQ PUSH2 0x142 JUMPI DUP1 PUSH4 0xE4E39678 EQ PUSH2 0x155 JUMPI PUSH0 DUP1 REVERT JUMPDEST DUP1 PUSH4 0x1DBD0F8 EQ PUSH2 0x7E JUMPI DUP1 PUSH4 0x2170A8F3 EQ PUSH2 0xAD JUMPI DUP1 PUSH4 0x43859632 EQ PUSH2 0xC2 JUMPI JUMPDEST PUSH0 DUP1 REVERT JUMPDEST PUSH0 SLOAD PUSH2 0x90 SWAP1 PUSH1 0x1 PUSH1 0x1 PUSH1 0xA0 SHL SUB AND DUP2 JUMP JUMPDEST PUSH1 0x40 MLOAD PUSH1 0x1 PUSH1 0x1 PUSH1 0xA0 SHL SUB SWAP1 SWAP2 AND DUP2 MSTORE PUSH1 0x20 ADD JUMPDEST PUSH1 0x40 MLOAD DUP1 SWAP2 SUB SWAP1 RETURN JUMPDEST PUSH2 0xC0 PUSH2 0xBB CALLDATASIZE PUSH1 0x4 PUSH2 0x63B JUMP JUMPDEST PUSH2 0x168 JUMP JUMPDEST STOP JUMPDEST PUSH2 0xEF PUSH2 0xD0 CALLDATASIZE PUSH1 0x4 PUSH2 0x652 JUMP JUMPDEST PUSH1 0x3 PUSH1 0x20 SWAP1 DUP2 MSTORE PUSH0 SWAP3 DUP4 MSTORE PUSH1 0x40 DUP1 DUP5 KECCAK256 SWAP1 SWAP2 MSTORE SWAP1 DUP3 MSTORE SWAP1 KECCAK256 SLOAD PUSH1 0xFF AND DUP2 JUMP JUMPDEST PUSH1 0x40 MLOAD SWAP1 ISZERO ISZERO DUP2 MSTORE PUSH1 0x20 ADD PUSH2 0xA4 JUMP JUMPDEST PUSH2 0xC0 PUSH2 0x10D CALLDATASIZE PUSH1 0x4 PUSH2 0x69B JUMP JUMPDEST PUSH2 0x254 JUMP JUMPDEST PUSH2 0x125 PUSH2 0x120 CALLDATASIZE PUSH1 0x4 PUSH2 0x63B JUMP JUMPDEST PUSH2 0x492 JUMP JUMPDEST PUSH1 0x40 DUP1 MLOAD SWAP4 DUP5 MSTORE PUSH1 0x20 DUP5 ADD SWAP3 SWAP1 SWAP3 MSTORE ISZERO ISZERO SWAP1 DUP3 ADD MSTORE PUSH1 0x60 ADD PUSH2 0xA4 JUMP JUMPDEST PUSH2 0xC0 PUSH2 0x150 CALLDATASIZE PUSH1 0x4 PUSH2 0x63B JUMP JUMPDEST PUSH2 0x4C6 JUMP JUMPDEST PUSH1 0x1 SLOAD PUSH2 0x90 SWAP1 PUSH1 0x1 PUSH1 0x1 PUSH1 0xA0 SHL SUB AND DUP2 JUMP JUMPDEST PUSH1 0x2 DUP1 SLOAD PUSH1 0x40 DUP1 MLOAD PUSH1 0x60 DUP2 ADD DUP3 MSTORE DUP5 DUP2 MSTORE PUSH0 PUSH1 0x20 DUP1 DUP4 ADD DUP3 DUP2 MSTORE DUP4 DUP6 ADD DUP4 DUP2 MSTORE PUSH1 0x1 DUP8 ADD DUP9 SSTORE SWAP7 SWAP1 SWAP3 MSTORE SWAP2 MLOAD PUSH32 0x405787FA12A823E0F2B7631CC41B3BA8828B3321CA811111FA75CD3AA3BB5ACE PUSH1 0x3 DUP7 MUL SWAP1 DUP2 ADD SWAP2 SWAP1 SWAP2 SSTORE SWAP1 MLOAD PUSH32 0x405787FA12A823E0F2B7631CC41B3BA8828B3321CA811111FA75CD3AA3BB5ACF DUP3 ADD SSTORE SWAP4 MLOAD PUSH32 0x405787FA12A823E0F2B7631CC41B3BA8828B3321CA811111FA75CD3AA3BB5AD0 SWAP1 SWAP5 ADD DUP1 SLOAD PUSH1 0xFF NOT AND SWAP5 ISZERO ISZERO SWAP5 SWAP1 SWAP5 OR SWAP1 SWAP4 SSTORE MLOAD DUP4 DUP2 MSTORE SWAP1 SWAP2 DUP3 SWAP2 PUSH32 0xD7634EB241AF278B842DF0C14F3313D5A6B0517F382FA0988194C6D741C0F061 SWAP2 ADD JUMPDEST PUSH1 0x40 MLOAD DUP1 SWAP2 SUB SWAP1 LOG2 POP POP JUMP JUMPDEST PUSH0 SLOAD PUSH1 0x40 MLOAD PUSH4 0x67317647 PUSH1 0xE0 SHL DUP2 MSTORE CALLER PUSH1 0x4 DUP3 ADD MSTORE PUSH1 0x1 PUSH1 0x1 PUSH1 0xA0 SHL SUB SWAP1 SWAP2 AND SWAP1 PUSH4 0x67317647 SWAP1 PUSH1 0x24 ADD PUSH1 0x20 PUSH1 0x40 MLOAD DUP1 DUP4 SUB DUP2 DUP7 GAS STATICCALL ISZERO DUP1 ISZERO PUSH2 0x299 JUMPI RETURNDATASIZE PUSH0 DUP1 RETURNDATACOPY RETURNDATASIZE PUSH0 REVERT JUMPDEST POP POP POP POP PUSH1 0x40 MLOAD RETURNDATASIZE PUSH1 0x1F NOT PUSH1 0x1F DUP3 ADD AND DUP3 ADD DUP1 PUSH1 0x40 MSTORE POP DUP2 ADD SWAP1 PUSH2 0x2BD SWAP2 SWAP1 PUSH2 0x6BE JUMP JUMPDEST PUSH2 0x305 JUMPI PUSH1 0x40 MLOAD PUSH3 0x461BCD PUSH1 0xE5 SHL DUP2 MSTORE PUSH1 0x20 PUSH1 0x4 DUP3 ADD MSTORE PUSH1 0x14 PUSH1 0x24 DUP3 ADD MSTORE PUSH20 0x2737BA1030B71030B1BA34BB329036B2B6B132B9 PUSH1 0x61 SHL PUSH1 0x44 DUP3 ADD MSTORE PUSH1 0x64 ADD JUMPDEST PUSH1 0x40 MLOAD DUP1 SWAP2 SUB SWAP1 REVERT JUMPDEST PUSH1 0x2 SLOAD DUP3 LT PUSH2 0x348 JUMPI PUSH1 0x40 MLOAD PUSH3 0x461BCD PUSH1 0xE5 SHL DUP2 MSTORE PUSH1 0x20 PUSH1 0x4 DUP3 ADD MSTORE PUSH1 0xF PUSH1 0x24 DUP3 ADD MSTORE PUSH15 0x125B9D985B1A59081D185CDAC81251 PUSH1 0x8A SHL PUSH1 0x44 DUP3 ADD MSTORE PUSH1 0x64 ADD PUSH2 0x2FC JUMP JUMPDEST PUSH0 PUSH1 0x2 DUP4 DUP2 SLOAD DUP2 LT PUSH2 0x35C JUMPI PUSH2 0x35C PUSH2 0x6E0 JUMP JUMPDEST PUSH0 SWAP2 DUP3 MSTORE PUSH1 0x20 SWAP1 SWAP2 KECCAK256 PUSH1 0x3 SWAP1 SWAP2 MUL ADD PUSH1 0x2 DUP2 ADD SLOAD SWAP1 SWAP2 POP PUSH1 0xFF AND ISZERO PUSH2 0x3BB JUMPI PUSH1 0x40 MLOAD PUSH3 0x461BCD PUSH1 0xE5 SHL DUP2 MSTORE PUSH1 0x20 PUSH1 0x4 DUP3 ADD MSTORE PUSH1 0x15 PUSH1 0x24 DUP3 ADD MSTORE PUSH21 0x15185CDAC8185B1C9958591E481C995CDBDB1D9959 PUSH1 0x5A SHL PUSH1 0x44 DUP3 ADD MSTORE PUSH1 0x64 ADD PUSH2 0x2FC JUMP JUMPDEST PUSH0 DUP4 DUP2 MSTORE PUSH1 0x3 PUSH1 0x20 SWAP1 DUP2 MSTORE PUSH1 0x40 DUP1 DUP4 KECCAK256 CALLER DUP5 MSTORE SWAP1 SWAP2 MSTORE SWAP1 KECCAK256 SLOAD PUSH1 0xFF AND ISZERO PUSH2 0x414 JUMPI PUSH1 0x40 MLOAD PUSH3 0x461BCD PUSH1 0xE5 SHL DUP2 MSTORE PUSH1 0x20 PUSH1 0x4 DUP3 ADD MSTORE PUSH1 0xD PUSH1 0x24 DUP3 ADD MSTORE PUSH13 0x105B1C9958591E481D9BDD1959 PUSH1 0x9A SHL PUSH1 0x44 DUP3 ADD MSTORE PUSH1 0x64 ADD PUSH2 0x2FC JUMP JUMPDEST PUSH0 DUP4 DUP2 MSTORE PUSH1 0x3 PUSH1 0x20 SWAP1 DUP2 MSTORE PUSH1 0x40 DUP1 DUP4 KECCAK256 CALLER DUP5 MSTORE SWAP1 SWAP2 MSTORE SWAP1 KECCAK256 DUP1 SLOAD PUSH1 0xFF NOT AND PUSH1 0x1 OR SWAP1 SSTORE DUP2 ISZERO PUSH2 0x454 JUMPI PUSH1 0x1 DUP2 ADD DUP1 SLOAD SWAP1 PUSH0 PUSH2 0x44E DUP4 PUSH2 0x6F4 JUMP JUMPDEST SWAP2 SWAP1 POP SSTORE POP JUMPDEST PUSH1 0x40 MLOAD DUP3 ISZERO ISZERO DUP2 MSTORE CALLER SWAP1 DUP5 SWAP1 PUSH32 0xE71FCDAC32DF1877C1700E7BDA2A03157E20993363A28FC35AC495CEFC76E4D4 SWAP1 PUSH1 0x20 ADD PUSH1 0x40 MLOAD DUP1 SWAP2 SUB SWAP1 LOG3 POP POP POP JUMP JUMPDEST PUSH1 0x2 DUP2 DUP2 SLOAD DUP2 LT PUSH2 0x4A1 JUMPI PUSH0 DUP1 REVERT JUMPDEST PUSH0 SWAP2 DUP3 MSTORE PUSH1 0x20 SWAP1 SWAP2 KECCAK256 PUSH1 0x3 SWAP1 SWAP2 MUL ADD DUP1 SLOAD PUSH1 0x1 DUP3 ADD SLOAD PUSH1 0x2 SWAP1 SWAP3 ADD SLOAD SWAP1 SWAP3 POP PUSH1 0xFF AND DUP4 JUMP JUMPDEST PUSH1 0x2 SLOAD DUP2 LT PUSH2 0x509 JUMPI PUSH1 0x40 MLOAD PUSH3 0x461BCD PUSH1 0xE5 SHL DUP2 MSTORE PUSH1 0x20 PUSH1 0x4 DUP3 ADD MSTORE PUSH1 0xF PUSH1 0x24 DUP3 ADD MSTORE PUSH15 0x125B9D985B1A59081D185CDAC81251 PUSH1 0x8A SHL PUSH1 0x44 DUP3 ADD MSTORE PUSH1 0x64 ADD PUSH2 0x2FC JUMP JUMPDEST PUSH0 PUSH1 0x2 DUP3 DUP2 SLOAD DUP2 LT PUSH2 0x51D JUMPI PUSH2 0x51D PUSH2 0x6E0 JUMP JUMPDEST PUSH0 SWAP2 DUP3 MSTORE PUSH1 0x20 SWAP1 SWAP2 KECCAK256 PUSH1 0x3 SWAP1 SWAP2 MUL ADD PUSH1 0x2 DUP2 ADD SLOAD SWAP1 SWAP2 POP PUSH1 0xFF AND ISZERO PUSH2 0x57C JUMPI PUSH1 0x40 MLOAD PUSH3 0x461BCD PUSH1 0xE5 SHL DUP2 MSTORE PUSH1 0x20 PUSH1 0x4 DUP3 ADD MSTORE PUSH1 0x15 PUSH1 0x24 DUP3 ADD MSTORE PUSH21 0x15185CDAC8185B1C9958591E481C995CDBDB1D9959 PUSH1 0x5A SHL PUSH1 0x44 DUP3 ADD MSTORE PUSH1 0x64 ADD PUSH2 0x2FC JUMP JUMPDEST PUSH1 0x3 DUP2 PUSH1 0x1 ADD SLOAD LT PUSH2 0x637 JUMPI PUSH1 0x1 SLOAD DUP2 SLOAD PUSH1 0x40 MLOAD PUSH4 0xE67F4221 PUSH1 0xE0 SHL DUP2 MSTORE PUSH1 0x1 PUSH1 0x1 PUSH1 0xA0 SHL SUB SWAP1 SWAP3 AND SWAP2 PUSH4 0xE67F4221 SWAP2 PUSH2 0x5BC SWAP2 PUSH1 0x4 ADD SWAP1 DUP2 MSTORE PUSH1 0x20 ADD SWAP1 JUMP JUMPDEST PUSH0 PUSH1 0x40 MLOAD DUP1 DUP4 SUB DUP2 PUSH0 DUP8 DUP1 EXTCODESIZE ISZERO DUP1 ISZERO PUSH2 0x5D3 JUMPI PUSH0 DUP1 REVERT JUMPDEST POP GAS CALL ISZERO DUP1 ISZERO PUSH2 0x5E5 JUMPI RETURNDATASIZE PUSH0 DUP1 RETURNDATACOPY RETURNDATASIZE PUSH0 REVERT JUMPDEST POP POP POP PUSH1 0x2 DUP3 ADD DUP1 SLOAD PUSH1 0xFF NOT AND PUSH1 0x1 SWAP1 DUP2 OR SWAP1 SWAP2 SSTORE DUP3 SLOAD PUSH1 0x40 MLOAD DUP6 SWAP4 POP PUSH32 0x29DD4C2456E33743521EE95EDE4AB034351347396E206001EE314D9652316238 SWAP3 PUSH2 0x248 SWAP3 DUP3 MSTORE ISZERO ISZERO PUSH1 0x20 DUP3 ADD MSTORE PUSH1 0x40 ADD SWAP1 JUMP JUMPDEST POP POP JUMP JUMPDEST PUSH0 PUSH1 0x20 DUP3 DUP5 SUB SLT ISZERO PUSH2 0x64B JUMPI PUSH0 DUP1 REVERT JUMPDEST POP CALLDATALOAD SWAP2 SWAP1 POP JUMP JUMPDEST PUSH0 DUP1 PUSH1 0x40 DUP4 DUP6 SUB SLT ISZERO PUSH2 0x663 JUMPI PUSH0 DUP1 REVERT JUMPDEST DUP3 CALLDATALOAD SWAP2 POP PUSH1 0x20 DUP4 ADD CALLDATALOAD PUSH1 0x1 PUSH1 0x1 PUSH1 0xA0 SHL SUB DUP2 AND DUP2 EQ PUSH2 0x680 JUMPI PUSH0 DUP1 REVERT JUMPDEST DUP1 SWAP2 POP POP SWAP3 POP SWAP3 SWAP1 POP JUMP JUMPDEST DUP1 ISZERO ISZERO DUP2 EQ PUSH2 0x698 JUMPI PUSH0 DUP1 REVERT JUMPDEST POP JUMP JUMPDEST PUSH0 DUP1 PUSH1 0x40 DUP4 DUP6 SUB SLT ISZERO PUSH2 0x6AC JUMPI PUSH0 DUP1 REVERT JUMPDEST DUP3 CALLDATALOAD SWAP2 POP PUSH1 0x20 DUP4 ADD CALLDATALOAD PUSH2 0x680 DUP2 PUSH2 0x68B JUMP JUMPDEST PUSH0 PUSH1 0x20 DUP3 DUP5 SUB SLT ISZERO PUSH2 0x6CE JUMPI PUSH0 DUP1 REVERT JUMPDEST DUP2 MLOAD PUSH2 0x6D9 DUP2 PUSH2 0x68B JUMP JUMPDEST SWAP4 SWAP3 POP POP POP JUMP JUMPDEST PUSH4 0x4E487B71 PUSH1 0xE0 SHL PUSH0 MSTORE PUSH1 0x32 PUSH1 0x4 MSTORE PUSH1 0x24 PUSH0 REVERT JUMPDEST PUSH0 PUSH1 0x1 DUP3 ADD PUSH2 0x711 JUMPI PUSH4 0x4E487B71 PUSH1 0xE0 SHL PUSH0 MSTORE PUSH1 0x11 PUSH1 0x4 MSTORE PUSH1 0x24 PUSH0 REVERT JUMPDEST POP PUSH1 0x1 ADD SWAP1 JUMP INVALID LOG2 PUSH5 0x6970667358 0x22 SLT KECCAK256 SWAP8 PUSH17 0xA7E6BA301E0EBAF3467D18EA4EFC7A0E60 0xE 0x2F 0xD1 ADDMOD SHL CALLDATASIZE SWAP7 STATICCALL STATICCALL 0xA9 0xDD 0x2F DIV PUSH5 0x736F6C6343 STOP ADDMOD XOR STOP CALLER "},"methodIdentifiers":{"actionRegistry()":"e4e39678","castBlacklistVote(uint256,bool)":"7c20aeba","flagActionForReview(bytes32)":"2170a8f3","hasVoted(uint256,address)":"43859632","resolveBlacklistVote(uint256)":"e4245a31","tasks(uint256)":"8d977672","webOfTrust()":"01dbd0f8"}}}}}