{"project/contracts/WebOfTrust.sol":{"WebOfTrust":{"abi":[{"inputs":[{"internalType":"uint256","name":"_requiredStake","type":"uint256"}],"stateMutability":"nonpayable","type":"constructor"},{"anonymous":false,"inputs":[{"indexed":false,"internalType":"bytes32","name":"code","type":"bytes32"},{"indexed":true,"internalType":"address","name":"creator","type":"address"}],"name":"InviteCodeCreated","type":"event"},{"anonymous":false,"inputs":[{"indexed":true,"internalType":"address","name":"member","type":"address"},{"indexed":false,"internalType":"address","name":"invitedBy","type":"address"}],"name":"MemberRegistered","type":"event"},{"inputs":[],"name":"DELEGATED_SLASH_PERCENT","outputs":[{"internalType":"uint256","name":"","type":"uint256"}],"stateMutability":"view","type":"function"},{"inputs":[],"name":"GENESIS_MEMBER","outputs":[{"internalType":"address","name":"","type":"address"}],"stateMutability":"view","type":"function"},{"inputs":[],"name":"PRIMARY_SLASH_PERCENT","outputs":[{"internalType":"uint256","name":"","type":"uint256"}],"stateMutability":"view","type":"function"},{"inputs":[],"name":"createInviteCode","outputs":[{"internalType":"bytes32","name":"","type":"bytes32"}],"stateMutability":"nonpayable","type":"function"},{"inputs":[{"internalType":"bytes32","name":"","type":"bytes32"}],"name":"inviterOfCode","outputs":[{"internalType":"address","name":"","type":"address"}],"stateMutability":"view","type":"function"},{"inputs":[{"internalType":"address","name":"_member","type":"address"}],"name":"isMemberActive","outputs":[{"internalType":"bool","name":"","type":"bool"}],"stateMutability":"view","type":"function"},{"inputs":[{"internalType":"address","name":"","type":"address"}],"name":"members","outputs":[{"internalType":"uint256","name":"stakedAmount","type":"uint256"},{"internalType":"address","name":"invitedBy","type":"address"},{"internalType":"bool","name":"isActive","type":"bool"}],"stateMutability":"view","type":"function"},{"inputs":[{"internalType":"bytes32","name":"_inviteCode","type":"bytes32"}],"name":"register","outputs":[],"stateMutability":"payable","type":"function"},{"inputs":[{"internalType":"address","name":"_reviewer","type":"address"}],"name":"reportBadReview","outputs":[],"stateMutability":"nonpayable","type":"function"},{"inputs":[],"name":"requiredStake","outputs":[{"internalType":"uint256","name":"","type":"uint256"}],"stateMutability":"view","type":"function"}],"evm":{"bytecode":{"linkReferences":{},"object":"60a060405234801561000f575f80fd5b5060405161080638038061080683398101604081905261002e9161009b565b600255336080819052604080516060810182525f8082526020808301828152600184860181815296845291839052939091209151825591519101805492511515600160a01b026001600160a81b03199093166001600160a01b0392909216919091179190911790556100b2565b5f602082840312156100ab575f80fd5b5051919050565b6080516107356100d15f395f818161020a015261041801526107355ff3fe60806040526004361061008f575f3560e01c8063673176471161005757806367317647146101a85780637214342c146101f957806396df73e41461022c578063c82f431714610240578063e1fa8e8414610254575f80fd5b806308ae4b0c14610093578063178a77be1461010457806319cb355d146101265780631d58cdc91461013b578063665613521461015c575b5f80fd5b34801561009e575f80fd5b506100da6100ad366004610658565b5f60208190529081526040902080546001909101546001600160a01b03811690600160a01b900460ff1683565b604080519384526001600160a01b0390921660208401521515908201526060015b60405180910390f35b34801561010f575f80fd5b50610118610267565b6040519081526020016100fb565b348015610131575f80fd5b5061011860025481565b348015610146575f80fd5b5061015a610155366004610658565b610360565b005b348015610167575f80fd5b50610190610176366004610685565b60016020525f90815260409020546001600160a01b031681565b6040516001600160a01b0390911681526020016100fb565b3480156101b3575f80fd5b506101e96101c2366004610658565b6001600160a01b03165f90815260208190526040902060010154600160a01b900460ff1690565b60405190151581526020016100fb565b348015610204575f80fd5b506101907f000000000000000000000000000000000000000000000000000000000000000081565b348015610237575f80fd5b50610118600581565b34801561024b575f80fd5b50610118600a81565b61015a610262366004610685565b6104a9565b335f90815260208190526040812060010154600160a01b900460ff166102cb5760405162461bcd60e51b81526020600482015260146024820152732737ba1030b71030b1ba34bb329036b2b6b132b960611b60448201526064015b60405180910390fd5b6040516bffffffffffffffffffffffff193360601b1660208201524260348201525f9060540160408051601f1981840301815282825280516020918201205f818152600183529290922080546001600160a01b0319163390811790915582845291935090917f3203f48922b35ce1cb7f5245f0792898232f609330565a7d79069fad5801eb60910160405180910390a2905090565b6001600160a01b0381165f9081526020819052604090206001810154600160a01b900460ff166103c85760405162461bcd60e51b81526020600482015260136024820152725265766965776572206e6f742061637469766560681b60448201526064016102c2565b5f6064600a835f01546103db91906106b0565b6103e591906106cd565b905080825f015f8282546103f991906106ec565b909155505060018201546001600160a01b0316801580159061044d57507f00000000000000000000000000000000000000000000000000000000000000006001600160a01b0316816001600160a01b031614155b156104a3576001600160a01b0381165f908152602081905260408120805490919060649061047d906005906106b0565b61048791906106cd565b905080825f015f82825461049b91906106ec565b909155505050505b50505050565b6002543410156104f05760405162461bcd60e51b8152602060048201526012602482015271496e73756666696369656e74207374616b6560701b60448201526064016102c2565b335f90815260208190526040902060010154600160a01b900460ff161561054e5760405162461bcd60e51b8152602060048201526012602482015271105b1c9958591e481c9959da5cdd195c995960721b60448201526064016102c2565b5f818152600160205260409020546001600160a01b0316806105a95760405162461bcd60e51b8152602060048201526014602482015273496e76616c6964206f72207573656420636f646560601b60448201526064016102c2565b5f82815260016020818152604080842080546001600160a01b031916905580516060810182523481526001600160a01b0386811682850181815283850187815233808a528988529886902094518555905193909601805496511515600160a01b026001600160a81b0319909716939092169290921794909417909355519182527f3a5a00ec423040dabe80f57799a58598c7a3b374fe3bcc917901b4867b30c908910160405180910390a25050565b5f60208284031215610668575f80fd5b81356001600160a01b038116811461067e575f80fd5b9392505050565b5f60208284031215610695575f80fd5b5035919050565b634e487b7160e01b5f52601160045260245ffd5b80820281158282048414176106c7576106c761069c565b92915050565b5f826106e757634e487b7160e01b5f52601260045260245ffd5b500490565b818103818111156106c7576106c761069c56fea2646970667358221220f010b49273e869de5339764786113943df66be1a942f402d7c5228bcef09171c64736f6c63430008180033","opcodes":"PUSH1 0xA0 PUSH1 0x40 MSTORE CALLVALUE DUP1 ISZERO PUSH2 0xF JUMPI PUSH0 DUP1 REVERT JUMPDEST POP PUSH1 0x40 MLOAD PUSH2 0x806 CODESIZE SUB DUP1 PUSH2 0x806 DUP4 CODECOPY DUP2 ADD PUSH1 0x40 DUP2 SWAP1 MSTORE PUSH2 0x2E SWAP2 PUSH2 0x9B JUMP JUMPDEST PUSH1 0x2 SSTORE CALLER PUSH1 0x80 DUP2 SWAP1 MSTORE PUSH1 0x40 DUP1 MLOAD PUSH1 0x60 DUP2 ADD DUP3 MSTORE PUSH0 DUP1 DUP3 MSTORE PUSH1 0x20 DUP1 DUP4 ADD DUP3 DUP2 MSTORE PUSH1 0x1 DUP5 DUP7 ADD DUP2 DUP2 MSTORE SWAP7 DUP5 MSTORE SWAP2 DUP4 SWAP1 MSTORE SWAP4 SWAP1 SWAP2 KECCAK256 SWAP2 MLOAD DUP3 SSTORE SWAP2 MLOAD SWAP2 ADD DUP1 SLOAD SWAP3 MLOAD ISZERO ISZERO PUSH1 0x1 PUSH1 0xA0 SHL MUL PUSH1 0x1 PUSH1 0x1 PUSH1 0xA8 SHL SUB NOT SWAP1 SWAP4 AND PUSH1 0x1 PUSH1 0x1 PUSH1 0xA0 SHL SUB SWAP3 SWAP1 SWAP3 AND SWAP2 SWAP1 SWAP2 OR SWAP2 SWAP1 SWAP2 OR SWAP1 SSTORE PUSH2 0xB2 JUMP JUMPDEST PUSH0 PUSH1 0x20 DUP3 DUP5 SUB SLT ISZERO PUSH2 0xAB JUMPI PUSH0 DUP1 REVERT JUMPDEST POP MLOAD SWAP2 SWAP1 POP JUMP JUMPDEST PUSH1 0x80 MLOAD PUSH2 0x735 PUSH2 0xD1 PUSH0 CODECOPY PUSH0 DUP2 DUP2 PUSH2 0x20A ADD MSTORE PUSH2 0x418 ADD MSTORE PUSH2 0x735 PUSH0 RETURN INVALID PUSH1 0x80 PUSH1 0x40 MSTORE PUSH1 0x4 CALLDATASIZE LT PUSH2 0x8F JUMPI PUSH0 CALLDATALOAD PUSH1 0xE0 SHR DUP1 PUSH4 0x67317647 GT PUSH2 0x57 JUMPI DUP1 PUSH4 0x67317647 EQ PUSH2 0x1A8 JUMPI DUP1 PUSH4 0x7214342C EQ PUSH2 0x1F9 JUMPI DUP1 PUSH4 0x96DF73E4 EQ PUSH2 0x22C JUMPI DUP1 PUSH4 0xC82F4317 EQ PUSH2 0x240 JUMPI DUP1 PUSH4 0xE1FA8E84 EQ PUSH2 0x254 JUMPI PUSH0 DUP1 REVERT JUMPDEST DUP1 PUSH4 0x8AE4B0C EQ PUSH2 0x93 JUMPI DUP1 PUSH4 0x178A77BE EQ PUSH2 0x104 JUMPI DUP1 PUSH4 0x19CB355D EQ PUSH2 0x126 JUMPI DUP1 PUSH4 0x1D58CDC9 EQ PUSH2 0x13B JUMPI DUP1 PUSH4 0x66561352 EQ PUSH2 0x15C JUMPI JUMPDEST PUSH0 DUP1 REVERT JUMPDEST CALLVALUE DUP1 ISZERO PUSH2 0x9E JUMPI PUSH0 DUP1 REVERT JUMPDEST POP PUSH2 0xDA PUSH2 0xAD CALLDATASIZE PUSH1 0x4 PUSH2 0x658 JUMP JUMPDEST PUSH0 PUSH1 0x20 DUP2 SWAP1 MSTORE SWAP1 DUP2 MSTORE PUSH1 0x40 SWAP1 KECCAK256 DUP1 SLOAD PUSH1 0x1 SWAP1 SWAP2 ADD SLOAD PUSH1 0x1 PUSH1 0x1 PUSH1 0xA0 SHL SUB DUP2 AND SWAP1 PUSH1 0x1 PUSH1 0xA0 SHL SWAP1 DIV PUSH1 0xFF AND DUP4 JUMP JUMPDEST PUSH1 0x40 DUP1 MLOAD SWAP4 DUP5 MSTORE PUSH1 0x1 PUSH1 0x1 PUSH1 0xA0 SHL SUB SWAP1 SWAP3 AND PUSH1 0x20 DUP5 ADD MSTORE ISZERO ISZERO SWAP1 DUP3 ADD MSTORE PUSH1 0x60 ADD JUMPDEST PUSH1 0x40 MLOAD DUP1 SWAP2 SUB SWAP1 RETURN JUMPDEST CALLVALUE DUP1 ISZERO PUSH2 0x10F JUMPI PUSH0 DUP1 REVERT JUMPDEST POP PUSH2 0x118 PUSH2 0x267 JUMP JUMPDEST PUSH1 0x40 MLOAD SWAP1 DUP2 MSTORE PUSH1 0x20 ADD PUSH2 0xFB JUMP JUMPDEST CALLVALUE DUP1 ISZERO PUSH2 0x131 JUMPI PUSH0 DUP1 REVERT JUMPDEST POP PUSH2 0x118 PUSH1 0x2 SLOAD DUP2 JUMP JUMPDEST CALLVALUE DUP1 ISZERO PUSH2 0x146 JUMPI PUSH0 DUP1 REVERT JUMPDEST POP PUSH2 0x15A PUSH2 0x155 CALLDATASIZE PUSH1 0x4 PUSH2 0x658 JUMP JUMPDEST PUSH2 0x360 JUMP JUMPDEST STOP JUMPDEST CALLVALUE DUP1 ISZERO PUSH2 0x167 JUMPI PUSH0 DUP1 REVERT JUMPDEST POP PUSH2 0x190 PUSH2 0x176 CALLDATASIZE PUSH1 0x4 PUSH2 0x685 JUMP JUMPDEST PUSH1 0x1 PUSH1 0x20 MSTORE PUSH0 SWAP1 DUP2 MSTORE PUSH1 0x40 SWAP1 KECCAK256 SLOAD PUSH1 0x1 PUSH1 0x1 PUSH1 0xA0 SHL SUB AND DUP2 JUMP JUMPDEST PUSH1 0x40 MLOAD PUSH1 0x1 PUSH1 0x1 PUSH1 0xA0 SHL SUB SWAP1 SWAP2 AND DUP2 MSTORE PUSH1 0x20 ADD PUSH2 0xFB JUMP JUMPDEST CALLVALUE DUP1 ISZERO PUSH2 0x1B3 JUMPI PUSH0 DUP1 REVERT JUMPDEST POP PUSH2 0x1E9 PUSH2 0x1C2 CALLDATASIZE PUSH1 0x4 PUSH2 0x658 JUMP JUMPDEST PUSH1 0x1 PUSH1 0x1 PUSH1 0xA0 SHL SUB AND PUSH0 SWAP1 DUP2 MSTORE PUSH1 0x20 DUP2 SWAP1 MSTORE PUSH1 0x40 SWAP1 KECCAK256 PUSH1 0x1 ADD SLOAD PUSH1 0x1 PUSH1 0xA0 SHL SWAP1 DIV PUSH1 0xFF AND SWAP1 JUMP JUMPDEST PUSH1 0x40 MLOAD SWAP1 ISZERO ISZERO DUP2 MSTORE PUSH1 0x20 ADD PUSH2 0xFB JUMP JUMPDEST CALLVALUE DUP1 ISZERO PUSH2 0x204 JUMPI PUSH0 DUP1 REVERT JUMPDEST POP PUSH2 0x190 PUSH32 0x0 DUP2 JUMP JUMPDEST CALLVALUE DUP1 ISZERO PUSH2 0x237 JUMPI PUSH0 DUP1 REVERT JUMPDEST POP PUSH2 0x118 PUSH1 0x5 DUP2 JUMP JUMPDEST CALLVALUE DUP1 ISZERO PUSH2 0x24B JUMPI PUSH0 DUP1 REVERT JUMPDEST POP PUSH2 0x118 PUSH1 0xA DUP2 JUMP JUMPDEST PUSH2 0x15A PUSH2 0x262 CALLDATASIZE PUSH1 0x4 PUSH2 0x685 JUMP JUMPDEST PUSH2 0x4A9 JUMP JUMPDEST CALLER PUSH0 SWAP1 DUP2 MSTORE PUSH1 0x20 DUP2 SWAP1 MSTORE PUSH1 0x40 DUP2 KECCAK256 PUSH1 0x1 ADD SLOAD PUSH1 0x1 PUSH1 0xA0 SHL SWAP1 DIV PUSH1 0xFF AND PUSH2 0x2CB JUMPI PUSH1 0x40 MLOAD PUSH3 0x461BCD PUSH1 0xE5 SHL DUP2 MSTORE PUSH1 0x20 PUSH1 0x4 DUP3 ADD MSTORE PUSH1 0x14 PUSH1 0x24 DUP3 ADD MSTORE PUSH20 0x2737BA1030B71030B1BA34BB329036B2B6B132B9 PUSH1 0x61 SHL PUSH1 0x44 DUP3 ADD MSTORE PUSH1 0x64 ADD JUMPDEST PUSH1 0x40 MLOAD DUP1 SWAP2 SUB SWAP1 REVERT JUMPDEST PUSH1 0x40 MLOAD PUSH12 0xFFFFFFFFFFFFFFFFFFFFFFFF NOT CALLER PUSH1 0x60 SHL AND PUSH1 0x20 DUP3 ADD MSTORE TIMESTAMP PUSH1 0x34 DUP3 ADD MSTORE PUSH0 SWAP1 PUSH1 0x54 ADD PUSH1 0x40 DUP1 MLOAD PUSH1 0x1F NOT DUP2 DUP5 SUB ADD DUP2 MSTORE DUP3 DUP3 MSTORE DUP1 MLOAD PUSH1 0x20 SWAP2 DUP3 ADD KECCAK256 PUSH0 DUP2 DUP2 MSTORE PUSH1 0x1 DUP4 MSTORE SWAP3 SWAP1 SWAP3 KECCAK256 DUP1 SLOAD PUSH1 0x1 PUSH1 0x1 PUSH1 0xA0 SHL SUB NOT AND CALLER SWAP1 DUP2 OR SWAP1 SWAP2 SSTORE DUP3 DUP5 MSTORE SWAP2 SWAP4 POP SWAP1 SWAP2 PUSH32 0x3203F48922B35CE1CB7F5245F0792898232F609330565A7D79069FAD5801EB60 SWAP2 ADD PUSH1 0x40 MLOAD DUP1 SWAP2 SUB SWAP1 LOG2 SWAP1 POP SWAP1 JUMP JUMPDEST PUSH1 0x1 PUSH1 0x1 PUSH1 0xA0 SHL SUB DUP2 AND PUSH0 SWAP1 DUP2 MSTORE PUSH1 0x20 DUP2 SWAP1 MSTORE PUSH1 0x40 SWAP1 KECCAK256 PUSH1 0x1 DUP2 ADD SLOAD PUSH1 0x1 PUSH1 0xA0 SHL SWAP1 DIV PUSH1 0xFF AND PUSH2 0x3C8 JUMPI PUSH1 0x40 MLOAD PUSH3 0x461BCD PUSH1 0xE5 SHL DUP2 MSTORE PUSH1 0x20 PUSH1 0x4 DUP3 ADD MSTORE PUSH1 0x13 PUSH1 0x24 DUP3 ADD MSTORE PUSH19 0x5265766965776572206E6F7420616374697665 PUSH1 0x68 SHL PUSH1 0x44 DUP3 ADD MSTORE PUSH1 0x64 ADD PUSH2 0x2C2 JUMP JUMPDEST PUSH0 PUSH1 0x64 PUSH1 0xA DUP4 PUSH0 ADD SLOAD PUSH2 0x3DB SWAP2 SWAP1 PUSH2 0x6B0 JUMP JUMPDEST PUSH2 0x3E5 SWAP2 SWAP1 PUSH2 0x6CD JUMP JUMPDEST SWAP1 POP DUP1 DUP3 PUSH0 ADD PUSH0 DUP3 DUP3 SLOAD PUSH2 0x3F9 SWAP2 SWAP1 PUSH2 0x6EC JUMP JUMPDEST SWAP1 SWAP2 SSTORE POP POP PUSH1 0x1 DUP3 ADD SLOAD PUSH1 0x1 PUSH1 0x1 PUSH1 0xA0 SHL SUB AND DUP1 ISZERO DUP1 ISZERO SWAP1 PUSH2 0x44D JUMPI POP PUSH32 0x0 PUSH1 0x1 PUSH1 0x1 PUSH1 0xA0 SHL SUB AND DUP2 PUSH1 0x1 PUSH1 0x1 PUSH1 0xA0 SHL SUB AND EQ ISZERO JUMPDEST ISZERO PUSH2 0x4A3 JUMPI PUSH1 0x1 PUSH1 0x1 PUSH1 0xA0 SHL SUB DUP2 AND PUSH0 SWAP1 DUP2 MSTORE PUSH1 0x20 DUP2 SWAP1 MSTORE PUSH1 0x40 DUP2 KECCAK256 DUP1 SLOAD SWAP1 SWAP2 SWAP1 PUSH1 0x64 SWAP1 PUSH2 0x47D SWAP1 PUSH1 0x5 SWAP1 PUSH2 0x6B0 JUMP JUMPDEST PUSH2 0x487 SWAP2 SWAP1 PUSH2 0x6CD JUMP JUMPDEST SWAP1 POP DUP1 DUP3 PUSH0 ADD PUSH0 DUP3 DUP3 SLOAD PUSH2 0x49B SWAP2 SWAP1 PUSH2 0x6EC JUMP JUMPDEST SWAP1 SWAP2 SSTORE POP POP POP POP JUMPDEST POP POP POP POP JUMP JUMPDEST PUSH1 0x2 SLOAD CALLVALUE LT ISZERO PUSH2 0x4F0 JUMPI PUSH1 0x40 MLOAD PUSH3 0x461BCD PUSH1 0xE5 SHL DUP2 MSTORE PUSH1 0x20 PUSH1 0x4 DUP3 ADD MSTORE PUSH1 0x12 PUSH1 0x24 DUP3 ADD MSTORE PUSH18 0x496E73756666696369656E74207374616B65 PUSH1 0x70 SHL PUSH1 0x44 DUP3 ADD MSTORE PUSH1 0x64 ADD PUSH2 0x2C2 JUMP JUMPDEST CALLER PUSH0 SWAP1 DUP2 MSTORE PUSH1 0x20 DUP2 SWAP1 MSTORE PUSH1 0x40 SWAP1 KECCAK256 PUSH1 0x1 ADD SLOAD PUSH1 0x1 PUSH1 0xA0 SHL SWAP1 DIV PUSH1 0xFF AND ISZERO PUSH2 0x54E JUMPI PUSH1 0x40 MLOAD PUSH3 0x461BCD PUSH1 0xE5 SHL DUP2 MSTORE PUSH1 0x20 PUSH1 0x4 DUP3 ADD MSTORE PUSH1 0x12 PUSH1 0x24 DUP3 ADD MSTORE PUSH18 0x105B1C9958591E481C9959DA5CDD195C9959 PUSH1 0x72 SHL PUSH1 0x44 DUP3 ADD MSTORE PUSH1 0x64 ADD PUSH2 0x2C2 JUMP JUMPDEST PUSH0 DUP2 DUP2 MSTORE PUSH1 0x1 PUSH1 0x20 MSTORE PUSH1 0x40 SWAP1 KECCAK256 SLOAD PUSH1 0x1 PUSH1 0x1 PUSH1 0xA0 SHL SUB AND DUP1 PUSH2 0x5A9 JUMPI PUSH1 0x40 MLOAD PUSH3 0x461BCD PUSH1 0xE5 SHL DUP2 MSTORE PUSH1 0x20 PUSH1 0x4 DUP3 ADD MSTORE PUSH1 0x14 PUSH1 0x24 DUP3 ADD MSTORE PUSH20 0x496E76616C6964206F72207573656420636F6465 PUSH1 0x60 SHL PUSH1 0x44 DUP3 ADD MSTORE PUSH1 0x64 ADD PUSH2 0x2C2 JUMP JUMPDEST PUSH0 DUP3 DUP2 MSTORE PUSH1 0x1 PUSH1 0x20 DUP2 DUP2 MSTORE PUSH1 0x40 DUP1 DUP5 KECCAK256 DUP1 SLOAD PUSH1 0x1 PUSH1 0x1 PUSH1 0xA0 SHL SUB NOT AND SWAP1 SSTORE DUP1 MLOAD PUSH1 0x60 DUP2 ADD DUP3 MSTORE CALLVALUE DUP2 MSTORE PUSH1 0x1 PUSH1 0x1 PUSH1 0xA0 SHL SUB DUP7 DUP2 AND DUP3 DUP6 ADD DUP2 DUP2 MSTORE DUP4 DUP6 ADD DUP8 DUP2 MSTORE CALLER DUP1 DUP11 MSTORE DUP10 DUP9 MSTORE SWAP9 DUP7 SWAP1 KECCAK256 SWAP5 MLOAD DUP6 SSTORE SWAP1 MLOAD SWAP4 SWAP1 SWAP7 ADD DUP1 SLOAD SWAP7 MLOAD ISZERO ISZERO PUSH1 0x1 PUSH1 0xA0 SHL MUL PUSH1 0x1 PUSH1 0x1 PUSH1 0xA8 SHL SUB NOT SWAP1 SWAP8 AND SWAP4 SWAP1 SWAP3 AND SWAP3 SWAP1 SWAP3 OR SWAP5 SWAP1 SWAP5 OR SWAP1 SWAP4 SSTORE MLOAD SWAP2 DUP3 MSTORE PUSH32 0x3A5A00EC423040DABE80F57799A58598C7A3B374FE3BCC917901B4867B30C908 SWAP2 ADD PUSH1 0x40 MLOAD DUP1 SWAP2 SUB SWAP1 LOG2 POP POP JUMP JUMPDEST PUSH0 PUSH1 0x20 DUP3 DUP5 SUB SLT ISZERO PUSH2 0x668 JUMPI PUSH0 DUP1 REVERT JUMPDEST DUP2 CALLDATALOAD PUSH1 0x1 PUSH1 0x1 PUSH1 0xA0 SHL SUB DUP2 AND DUP2 EQ PUSH2 0x67E JUMPI PUSH0 DUP1 REVERT JUMPDEST SWAP4 SWAP3 POP POP POP JUMP JUMPDEST PUSH0 PUSH1 0x20 DUP3 DUP5 SUB SLT ISZERO PUSH2 0x695 JUMPI PUSH0 DUP1 REVERT JUMPDEST POP CALLDATALOAD SWAP2 SWAP1 POP JUMP JUMPDEST PUSH4 0x4E487B71 PUSH1 0xE0 SHL PUSH0 MSTORE PUSH1 0x11 PUSH1 0x4 MSTORE PUSH1 0x24 PUSH0 REVERT JUMPDEST DUP1 DUP3 MUL DUP2 ISZERO DUP3 DUP3 DIV DUP5 EQ OR PUSH2 0x6C7 JUMPI PUSH2 0x6C7 PUSH2 0x69C JUMP JUMPDEST SWAP3 SWAP2 POP POP JUMP JUMPDEST PUSH0 DUP3 PUSH2 0x6E7 JUMPI PUSH4 0x4E487B71 PUSH1 0xE0 SHL PUSH0 MSTORE PUSH1 0x12 PUSH1 0x4 MSTORE PUSH1 0x24 PUSH0 REVERT JUMPDEST POP DIV SWAP1 JUMP JUMPDEST DUP2 DUP2 SUB DUP2 DUP2 GT ISZERO PUSH2 0x6C7 JUMPI PUSH2 0x6C7 PUSH2 0x69C JUMP INVALID LOG2 PUSH5 0x6970667358 0x22 SLT KECCAK256 CREATE LT 0xB4 SWAP3 PUSH20 0xE869DE5339764786113943DF66BE1A942F402D7C MSTORE 0x28 0xBC 0xEF MULMOD OR SHR PUSH5 0x736F6C6343 STOP ADDMOD XOR STOP CALLER "},"methodIdentifiers":{"DELEGATED_SLASH_PERCENT()":"96df73e4","GENESIS_MEMBER()":"7214342c","PRIMARY_SLASH_PERCENT()":"c82f4317","createInviteCode()":"178a77be","inviterOfCode(bytes32)":"66561352","isMemberActive(address)":"67317647","members(address)":"08ae4b0c","register(bytes32)":"e1fa8e84","reportBadReview(address)":"1d58cdc9","requiredStake()":"19cb355d"}}}}}