{"project/contracts/ActionRegistry.sol":{"ActionRegistry":{"abi":[{"inputs":[{"internalType":"bytes32","name":"","type":"bytes32"}],"name":"actionStatus","outputs":[{"internalType":"uint8","name":"","type":"uint8"}],"stateMutability":"view","type":"function"},{"inputs":[{"internalType":"bytes32","name":"_actionHash","type":"bytes32"}],"name":"addToBlacklist","outputs":[],"stateMutability":"nonpayable","type":"function"},{"inputs":[{"internalType":"bytes32","name":"_actionHash","type":"bytes32"}],"name":"getActionStatus","outputs":[{"internalType":"uint8","name":"","type":"uint8"}],"stateMutability":"view","type":"function"},{"inputs":[],"name":"reviewOracleAddress","outputs":[{"internalType":"address","name":"","type":"address"}],"stateMutability":"view","type":"function"},{"inputs":[{"internalType":"address","name":"_oracleAddress","type":"address"}],"name":"setReviewOracleAddress","outputs":[],"stateMutability":"nonpayable","type":"function"}],"evm":{"bytecode":{"linkReferences":{},"object":"608060405234801561000f575f80fd5b5061025b8061001d5f395ff3fe608060405234801561000f575f80fd5b5060043610610055575f3560e01c8063a533ad0214610059578063bea0897c14610092578063c0573dbe146100b4578063ca09bdf7146100c9578063e67f4221146100f4575b5f80fd5b61007b6100673660046101e1565b5f6020819052908152604090205460ff1681565b60405160ff90911681526020015b60405180910390f35b61007b6100a03660046101e1565b5f9081526020819052604090205460ff1690565b6100c76100c23660046101f8565b610107565b005b6001546100dc906001600160a01b031681565b6040516001600160a01b039091168152602001610089565b6100c76101023660046101e1565b61017c565b6001546001600160a01b03161561015a5760405162461bcd60e51b815260206004820152601260248201527113dc9858db1948185b1c9958591e481cd95d60721b60448201526064015b60405180910390fd5b600180546001600160a01b0319166001600160a01b0392909216919091179055565b6001546001600160a01b031633146101c75760405162461bcd60e51b815260206004820152600e60248201526d139bdd08185d5d1a1bdc9a5e995960921b6044820152606401610151565b5f908152602081905260409020805460ff19166002179055565b5f602082840312156101f1575f80fd5b5035919050565b5f60208284031215610208575f80fd5b81356001600160a01b038116811461021e575f80fd5b939250505056fea26469706673582212209dfebebd10198fb88d9c9c4cfb4ef2fe4650011708da25b2b2f713735c16f5a764736f6c63430008180033","opcodes":"PUSH1 0x80 PUSH1 0x40 MSTORE CALLVALUE DUP1 ISZERO PUSH2 0xF JUMPI PUSH0 DUP1 REVERT JUMPDEST POP PUSH2 0x25B DUP1 PUSH2 0x1D PUSH0 CODECOPY PUSH0 RETURN INVALID PUSH1 0x80 PUSH1 0x40 MSTORE CALLVALUE DUP1 ISZERO PUSH2 0xF JUMPI PUSH0 DUP1 REVERT JUMPDEST POP PUSH1 0x4 CALLDATASIZE LT PUSH2 0x55 JUMPI PUSH0 CALLDATALOAD PUSH1 0xE0 SHR DUP1 PUSH4 0xA533AD02 EQ PUSH2 0x59 JUMPI DUP1 PUSH4 0xBEA0897C EQ PUSH2 0x92 JUMPI DUP1 PUSH4 0xC0573DBE EQ PUSH2 0xB4 JUMPI DUP1 PUSH4 0xCA09BDF7 EQ PUSH2 0xC9 JUMPI DUP1 PUSH4 0xE67F4221 EQ PUSH2 0xF4 JUMPI JUMPDEST PUSH0 DUP1 REVERT JUMPDEST PUSH2 0x7B PUSH2 0x67 CALLDATASIZE PUSH1 0x4 PUSH2 0x1E1 JUMP JUMPDEST PUSH0 PUSH1 0x20 DUP2 SWAP1 MSTORE SWAP1 DUP2 MSTORE PUSH1 0x40 SWAP1 KECCAK256 SLOAD PUSH1 0xFF AND DUP2 JUMP JUMPDEST PUSH1 0x40 MLOAD PUSH1 0xFF SWAP1 SWAP2 AND DUP2 MSTORE PUSH1 0x20 ADD JUMPDEST PUSH1 0x40 MLOAD DUP1 SWAP2 SUB SWAP1 RETURN JUMPDEST PUSH2 0x7B PUSH2 0xA0 CALLDATASIZE PUSH1 0x4 PUSH2 0x1E1 JUMP JUMPDEST PUSH0 SWAP1 DUP2 MSTORE PUSH1 0x20 DUP2 SWAP1 MSTORE PUSH1 0x40 SWAP1 KECCAK256 SLOAD PUSH1 0xFF AND SWAP1 JUMP JUMPDEST PUSH2 0xC7 PUSH2 0xC2 CALLDATASIZE PUSH1 0x4 PUSH2 0x1F8 JUMP JUMPDEST PUSH2 0x107 JUMP JUMPDEST STOP JUMPDEST PUSH1 0x1 SLOAD PUSH2 0xDC SWAP1 PUSH1 0x1 PUSH1 0x1 PUSH1 0xA0 SHL SUB AND DUP2 JUMP JUMPDEST PUSH1 0x40 MLOAD PUSH1 0x1 PUSH1 0x1 PUSH1 0xA0 SHL SUB SWAP1 SWAP2 AND DUP2 MSTORE PUSH1 0x20 ADD PUSH2 0x89 JUMP JUMPDEST PUSH2 0xC7 PUSH2 0x102 CALLDATASIZE PUSH1 0x4 PUSH2 0x1E1 JUMP JUMPDEST PUSH2 0x17C JUMP JUMPDEST PUSH1 0x1 SLOAD PUSH1 0x1 PUSH1 0x1 PUSH1 0xA0 SHL SUB AND ISZERO PUSH2 0x15A JUMPI PUSH1 0x40 MLOAD PUSH3 0x461BCD PUSH1 0xE5 SHL DUP2 MSTORE PUSH1 0x20 PUSH1 0x4 DUP3 ADD MSTORE PUSH1 0x12 PUSH1 0x24 DUP3 ADD MSTORE PUSH18 0x13DC9858DB1948185B1C9958591E481CD95D PUSH1 0x72 SHL PUSH1 0x44 DUP3 ADD MSTORE PUSH1 0x64 ADD JUMPDEST PUSH1 0x40 MLOAD DUP1 SWAP2 SUB SWAP1 REVERT JUMPDEST PUSH1 0x1 DUP1 SLOAD PUSH1 0x1 PUSH1 0x1 PUSH1 0xA0 SHL SUB NOT AND PUSH1 0x1 PUSH1 0x1 PUSH1 0xA0 SHL SUB SWAP3 SWAP1 SWAP3 AND SWAP2 SWAP1 SWAP2 OR SWAP1 SSTORE JUMP JUMPDEST PUSH1 0x1 SLOAD PUSH1 0x1 PUSH1 0x1 PUSH1 0xA0 SHL SUB AND CALLER EQ PUSH2 0x1C7 JUMPI PUSH1 0x40 MLOAD PUSH3 0x461BCD PUSH1 0xE5 SHL DUP2 MSTORE PUSH1 0x20 PUSH1 0x4 DUP3 ADD MSTORE PUSH1 0xE PUSH1 0x24 DUP3 ADD MSTORE PUSH14 0x139BDD08185D5D1A1BDC9A5E9959 PUSH1 0x92 SHL PUSH1 0x44 DUP3 ADD MSTORE PUSH1 0x64 ADD PUSH2 0x151 JUMP JUMPDEST PUSH0 SWAP1 DUP2 MSTORE PUSH1 0x20 DUP2 SWAP1 MSTORE PUSH1 0x40 SWAP1 KECCAK256 DUP1 SLOAD PUSH1 0xFF NOT AND PUSH1 0x2 OR SWAP1 SSTORE JUMP JUMPDEST PUSH0 PUSH1 0x20 DUP3 DUP5 SUB SLT ISZERO PUSH2 0x1F1 JUMPI PUSH0 DUP1 REVERT JUMPDEST POP CALLDATALOAD SWAP2 SWAP1 POP JUMP JUMPDEST PUSH0 PUSH1 0x20 DUP3 DUP5 SUB SLT ISZERO PUSH2 0x208 JUMPI PUSH0 DUP1 REVERT JUMPDEST DUP2 CALLDATALOAD PUSH1 0x1 PUSH1 0x1 PUSH1 0xA0 SHL SUB DUP2 AND DUP2 EQ PUSH2 0x21E JUMPI PUSH0 DUP1 REVERT JUMPDEST SWAP4 SWAP3 POP POP POP JUMP INVALID LOG2 PUSH5 0x6970667358 0x22 SLT KECCAK256 SWAP14 INVALID 0xBE 0xBD LT NOT DUP16 0xB8 DUP14 SWAP13 SWAP13 0x4C 0xFB 0x4E CALLCODE INVALID CHAINID POP ADD OR ADDMOD 0xDA 0x25 0xB2 0xB2 0xF7 SGT PUSH20 0x5C16F5A764736F6C634300081800330000000000 "},"methodIdentifiers":{"actionStatus(bytes32)":"a533ad02","addToBlacklist(bytes32)":"e67f4221","getActionStatus(bytes32)":"bea0897c","reviewOracleAddress()":"ca09bdf7","setReviewOracleAddress(address)":"c0573dbe"}}}}}