{
  "_format": "hh3-artifact-1",
  "contractName": "WebOfTrust",
  "sourceName": "contracts/WebOfTrust.sol",
  "abi": [
    {
      "inputs": [
        {
          "internalType": "uint256",
          "name": "_requiredStake",
          "type": "uint256"
        }
      ],
      "stateMutability": "nonpayable",
      "type": "constructor"
    },
    {
      "anonymous": false,
      "inputs": [
        {
          "indexed": true,
          "internalType": "bytes32",
          "name": "inviteCode",
          "type": "bytes32"
        },
        {
          "indexed": true,
          "internalType": "address",
          "name": "creator",
          "type": "address"
        }
      ],
      "name": "InviteCodeCreated",
      "type": "event"
    },
    {
      "anonymous": false,
      "inputs": [
        {
          "indexed": true,
          "internalType": "address",
          "name": "member",
          "type": "address"
        },
        {
          "indexed": false,
          "internalType": "address",
          "name": "invitedBy",
          "type": "address"
        }
      ],
      "name": "MemberRegistered",
      "type": "event"
    },
    {
      "inputs": [],
      "name": "DELEGATED_SLASH_PERCENT",
      "outputs": [
        {
          "internalType": "uint256",
          "name": "",
          "type": "uint256"
        }
      ],
      "stateMutability": "view",
      "type": "function"
    },
    {
      "inputs": [],
      "name": "GENESIS_MEMBER",
      "outputs": [
        {
          "internalType": "address",
          "name": "",
          "type": "address"
        }
      ],
      "stateMutability": "view",
      "type": "function"
    },
    {
      "inputs": [],
      "name": "PRIMARY_SLASH_PERCENT",
      "outputs": [
        {
          "internalType": "uint256",
          "name": "",
          "type": "uint256"
        }
      ],
      "stateMutability": "view",
      "type": "function"
    },
    {
      "inputs": [],
      "name": "createInviteCode",
      "outputs": [
        {
          "internalType": "bytes32",
          "name": "",
          "type": "bytes32"
        }
      ],
      "stateMutability": "nonpayable",
      "type": "function"
    },
    {
      "inputs": [
        {
          "internalType": "bytes32",
          "name": "",
          "type": "bytes32"
        }
      ],
      "name": "inviterOfCode",
      "outputs": [
        {
          "internalType": "address",
          "name": "",
          "type": "address"
        }
      ],
      "stateMutability": "view",
      "type": "function"
    },
    {
      "inputs": [
        {
          "internalType": "address",
          "name": "",
          "type": "address"
        }
      ],
      "name": "members",
      "outputs": [
        {
          "internalType": "uint256",
          "name": "stakedAmount",
          "type": "uint256"
        },
        {
          "internalType": "address",
          "name": "invitedBy",
          "type": "address"
        },
        {
          "internalType": "bool",
          "name": "isActive",
          "type": "bool"
        }
      ],
      "stateMutability": "view",
      "type": "function"
    },
    {
      "inputs": [
        {
          "internalType": "bytes32",
          "name": "_inviteCode",
          "type": "bytes32"
        }
      ],
      "name": "register",
      "outputs": [],
      "stateMutability": "payable",
      "type": "function"
    },
    {
      "inputs": [
        {
          "internalType": "address",
          "name": "_reviewer",
          "type": "address"
        }
      ],
      "name": "reportBadReview",
      "outputs": [],
      "stateMutability": "nonpayable",
      "type": "function"
    },
    {
      "inputs": [],
      "name": "requiredStake",
      "outputs": [
        {
          "internalType": "uint256",
          "name": "",
          "type": "uint256"
        }
      ],
      "stateMutability": "view",
      "type": "function"
    }
  ],
  "bytecode": "0x60a060405234801561000f575f5ffd5b506040516107a13803806107a183398101604081905261002e9161009b565b600255336080819052604080516060810182525f8082526020808301828152600184860181815296845291839052939091209151825591519101805492511515600160a01b026001600160a81b03199093166001600160a01b0392909216919091179190911790556100b2565b5f602082840312156100ab575f5ffd5b5051919050565b6080516106d06100d15f395f81816101ae01526103b301526106d05ff3fe608060405260043610610084575f3560e01c8063665613521161005757806366561352146101515780637214342c1461019d57806396df73e4146101d0578063c82f4317146101e4578063e1fa8e84146101f8575f5ffd5b806308ae4b0c14610088578063178a77be146100f957806319cb355d1461011b5780631d58cdc914610130575b5f5ffd5b348015610093575f5ffd5b506100cf6100a23660046105f3565b5f60208190529081526040902080546001909101546001600160a01b03811690600160a01b900460ff1683565b604080519384526001600160a01b0390921660208401521515908201526060015b60405180910390f35b348015610104575f5ffd5b5061010d61020b565b6040519081526020016100f0565b348015610126575f5ffd5b5061010d60025481565b34801561013b575f5ffd5b5061014f61014a3660046105f3565b6102fb565b005b34801561015c575f5ffd5b5061018561016b366004610620565b60016020525f90815260409020546001600160a01b031681565b6040516001600160a01b0390911681526020016100f0565b3480156101a8575f5ffd5b506101857f000000000000000000000000000000000000000000000000000000000000000081565b3480156101db575f5ffd5b5061010d600581565b3480156101ef575f5ffd5b5061010d600a81565b61014f610206366004610620565b610444565b335f90815260208190526040812060010154600160a01b900460ff1661026f5760405162461bcd60e51b81526020600482015260146024820152732737ba1030b71030b1ba34bb329036b2b6b132b960611b60448201526064015b60405180910390fd5b6040516bffffffffffffffffffffffff193360601b1660208201524260348201525f9060540160408051601f1981840301815282825280516020918201205f818152600190925291812080546001600160a01b03191633908117909155919350909183917f3203f48922b35ce1cb7f5245f0792898232f609330565a7d79069fad5801eb6091a3905090565b6001600160a01b0381165f9081526020819052604090206001810154600160a01b900460ff166103635760405162461bcd60e51b81526020600482015260136024820152725265766965776572206e6f742061637469766560681b6044820152606401610266565b5f6064600a835f0154610376919061064b565b6103809190610668565b905080825f015f8282546103949190610687565b909155505060018201546001600160a01b031680158015906103e857507f00000000000000000000000000000000000000000000000000000000000000006001600160a01b0316816001600160a01b031614155b1561043e576001600160a01b0381165f90815260208190526040812080549091906064906104189060059061064b565b6104229190610668565b905080825f015f8282546104369190610687565b909155505050505b50505050565b60025434101561048b5760405162461bcd60e51b8152602060048201526012602482015271496e73756666696369656e74207374616b6560701b6044820152606401610266565b335f90815260208190526040902060010154600160a01b900460ff16156104e95760405162461bcd60e51b8152602060048201526012602482015271105b1c9958591e481c9959da5cdd195c995960721b6044820152606401610266565b5f818152600160205260409020546001600160a01b0316806105445760405162461bcd60e51b8152602060048201526014602482015273496e76616c6964206f72207573656420636f646560601b6044820152606401610266565b5f82815260016020818152604080842080546001600160a01b031916905580516060810182523481526001600160a01b0386811682850181815283850187815233808a528988529886902094518555905193909601805496511515600160a01b026001600160a81b0319909716939092169290921794909417909355519182527f3a5a00ec423040dabe80f57799a58598c7a3b374fe3bcc917901b4867b30c908910160405180910390a25050565b5f60208284031215610603575f5ffd5b81356001600160a01b0381168114610619575f5ffd5b9392505050565b5f60208284031215610630575f5ffd5b5035919050565b634e487b7160e01b5f52601160045260245ffd5b808202811582820484141761066257610662610637565b92915050565b5f8261068257634e487b7160e01b5f52601260045260245ffd5b500490565b818103818111156106625761066261063756fea2646970667358221220e074aa0ec16cb644e7b17da91b5faf88a4f12569a9a7e154a47c17577160564c64736f6c634300081c0033",
  "linkReferences": {},
  "deployedLinkReferences": {},
  "immutableReferences": {
    "21": [
      {
        "length": 32,
        "start": 430
      },
      {
        "length": 32,
        "start": 947
      }
    ]
  },
  "inputSourceName": "project/contracts/WebOfTrust.sol",
  "buildInfoId": "solc-0_8_28-e2f9461a7473acc81441b6aac1a951851a522152"
}