{
  "_format": "hh3-artifact-1",
  "contractName": "NaughtyAgentsSecurityModule",
  "sourceName": "contracts/NaughtyAgentsSecurityModule.sol",
  "abi": [
    {
      "inputs": [
        {
          "internalType": "address",
          "name": "_actionRegistry",
          "type": "address"
        },
        {
          "internalType": "address",
          "name": "_reviewOracle",
          "type": "address"
        }
      ],
      "stateMutability": "nonpayable",
      "type": "constructor"
    },
    {
      "inputs": [],
      "name": "actionRegistry",
      "outputs": [
        {
          "internalType": "address",
          "name": "",
          "type": "address"
        }
      ],
      "stateMutability": "view",
      "type": "function"
    },
    {
      "inputs": [
        {
          "internalType": "address",
          "name": "dest",
          "type": "address"
        },
        {
          "internalType": "uint256",
          "name": "value",
          "type": "uint256"
        },
        {
          "internalType": "bytes",
          "name": "data",
          "type": "bytes"
        }
      ],
      "name": "calculateActionHash",
      "outputs": [
        {
          "internalType": "bytes32",
          "name": "",
          "type": "bytes32"
        }
      ],
      "stateMutability": "pure",
      "type": "function"
    },
    {
      "inputs": [],
      "name": "reviewOracle",
      "outputs": [
        {
          "internalType": "address",
          "name": "",
          "type": "address"
        }
      ],
      "stateMutability": "view",
      "type": "function"
    },
    {
      "inputs": [
        {
          "internalType": "address",
          "name": "dest",
          "type": "address"
        },
        {
          "internalType": "uint256",
          "name": "value",
          "type": "uint256"
        },
        {
          "internalType": "bytes",
          "name": "data",
          "type": "bytes"
        }
      ],
      "name": "validateTransaction",
      "outputs": [
        {
          "internalType": "bool",
          "name": "",
          "type": "bool"
        }
      ],
      "stateMutability": "nonpayable",
      "type": "function"
    }
  ],
  "bytecode": "0x60c060405234801561000f575f5ffd5b5060405161057138038061057183398101604081905261002e916100bf565b6001600160a01b0382161580159061004e57506001600160a01b03811615155b61008d5760405162461bcd60e51b815260206004820152600c60248201526b5a65726f206164647265737360a01b604482015260640160405180910390fd5b6001600160a01b039182166080521660a0526100f0565b80516001600160a01b03811681146100ba575f5ffd5b919050565b5f5f604083850312156100d0575f5ffd5b6100d9836100a4565b91506100e7602084016100a4565b90509250929050565b60805160a05161045461011d5f395f818160db015261025301525f8181609c015261016601526104545ff3fe608060405234801561000f575f5ffd5b506004361061004a575f3560e01c8063aa5215921461004e578063d0f837be14610074578063e4e3967814610097578063f36d70f9146100d6575b5f5ffd5b61006161005c366004610320565b6100fd565b6040519081526020015b60405180910390f35b610087610082366004610320565b610135565b604051901515815260200161006b565b6100be7f000000000000000000000000000000000000000000000000000000000000000081565b6040516001600160a01b03909116815260200161006b565b6100be7f000000000000000000000000000000000000000000000000000000000000000081565b5f8484848460405160200161011594939291906103b0565b604051602081830303815290604052805190602001209050949350505050565b5f5f610143868686866100fd565b604051632fa8225f60e21b8152600481018290529091505f906001600160a01b037f0000000000000000000000000000000000000000000000000000000000000000169063bea0897c90602401602060405180830381865afa1580156101ab573d5f5f3e3d5ffd5b505050506040513d601f19601f820116820180604052508101906101cf91906103f7565b90508060ff166002036102335760405162461bcd60e51b815260206004820152602160248201527f4e6175676874794167656e74733a20416374696f6e20426c61636b6c697374656044820152601960fa1b60648201526084015b60405180910390fd5b8060ff165f0361031357604051632170a8f360e01b8152600481018390527f00000000000000000000000000000000000000000000000000000000000000006001600160a01b031690632170a8f3906024015f604051808303815f87803b15801561029c575f5ffd5b505af11580156102ae573d5f5f3e3d5ffd5b505060405162461bcd60e51b815260206004820152602e60248201527f4e6175676874794167656e74733a20556e6b6e6f776e20416374696f6e202d2060448201526d50656e64696e672052657669657760901b6064820152608401915061022a9050565b5060019695505050505050565b5f5f5f5f60608587031215610333575f5ffd5b84356001600160a01b0381168114610349575f5ffd5b935060208501359250604085013567ffffffffffffffff81111561036b575f5ffd5b8501601f8101871361037b575f5ffd5b803567ffffffffffffffff811115610391575f5ffd5b8760208284010111156103a2575f5ffd5b949793965060200194505050565b6001600160a01b0385168152602081018490526060604082018190528101829052818360808301375f818301608090810191909152601f909201601f191601019392505050565b5f60208284031215610407575f5ffd5b815160ff81168114610417575f5ffd5b939250505056fea26469706673582212202e4e28279eac36aff5439ec021287a448154c64d34946d0a06f7d464c57808c964736f6c634300081c0033",
  "linkReferences": {},
  "deployedLinkReferences": {},
  "immutableReferences": {
    "7": [
      {
        "length": 32,
        "start": 156
      },
      {
        "length": 32,
        "start": 358
      }
    ],
    "9": [
      {
        "length": 32,
        "start": 219
      },
      {
        "length": 32,
        "start": 595
      }
    ]
  },
  "inputSourceName": "project/contracts/NaughtyAgentsSecurityModule.sol",
  "buildInfoId": "solc-0_8_28-af945737237e305b79e84c52d8404bdbb7b1b110"
}