{
  "_format": "hh3-artifact-1",
  "contractName": "ReviewOracle",
  "sourceName": "contracts/ReviewOracle.sol",
  "abi": [
    {
      "inputs": [
        {
          "internalType": "address",
          "name": "_webOfTrust",
          "type": "address"
        },
        {
          "internalType": "address",
          "name": "_actionRegistry",
          "type": "address"
        }
      ],
      "stateMutability": "nonpayable",
      "type": "constructor"
    },
    {
      "anonymous": false,
      "inputs": [
        {
          "indexed": true,
          "internalType": "uint256",
          "name": "taskId",
          "type": "uint256"
        },
        {
          "indexed": false,
          "internalType": "bytes32",
          "name": "actionHash",
          "type": "bytes32"
        }
      ],
      "name": "ActionFlagged",
      "type": "event"
    },
    {
      "anonymous": false,
      "inputs": [
        {
          "indexed": true,
          "internalType": "uint256",
          "name": "taskId",
          "type": "uint256"
        },
        {
          "indexed": true,
          "internalType": "address",
          "name": "voter",
          "type": "address"
        },
        {
          "indexed": false,
          "internalType": "bool",
          "name": "approve",
          "type": "bool"
        }
      ],
      "name": "VoteCast",
      "type": "event"
    },
    {
      "anonymous": false,
      "inputs": [
        {
          "indexed": true,
          "internalType": "uint256",
          "name": "taskId",
          "type": "uint256"
        },
        {
          "indexed": false,
          "internalType": "bytes32",
          "name": "actionHash",
          "type": "bytes32"
        },
        {
          "indexed": false,
          "internalType": "bool",
          "name": "blacklisted",
          "type": "bool"
        }
      ],
      "name": "VoteResolved",
      "type": "event"
    },
    {
      "inputs": [],
      "name": "actionRegistry",
      "outputs": [
        {
          "internalType": "contract ActionRegistry",
          "name": "",
          "type": "address"
        }
      ],
      "stateMutability": "view",
      "type": "function"
    },
    {
      "inputs": [
        {
          "internalType": "uint256",
          "name": "_taskId",
          "type": "uint256"
        },
        {
          "internalType": "bool",
          "name": "_approveBlacklist",
          "type": "bool"
        }
      ],
      "name": "castBlacklistVote",
      "outputs": [],
      "stateMutability": "nonpayable",
      "type": "function"
    },
    {
      "inputs": [
        {
          "internalType": "bytes32",
          "name": "_actionHash",
          "type": "bytes32"
        }
      ],
      "name": "flagActionForReview",
      "outputs": [],
      "stateMutability": "nonpayable",
      "type": "function"
    },
    {
      "inputs": [
        {
          "internalType": "uint256",
          "name": "",
          "type": "uint256"
        },
        {
          "internalType": "address",
          "name": "",
          "type": "address"
        }
      ],
      "name": "hasVoted",
      "outputs": [
        {
          "internalType": "bool",
          "name": "",
          "type": "bool"
        }
      ],
      "stateMutability": "view",
      "type": "function"
    },
    {
      "inputs": [
        {
          "internalType": "uint256",
          "name": "_taskId",
          "type": "uint256"
        }
      ],
      "name": "resolveBlacklistVote",
      "outputs": [],
      "stateMutability": "nonpayable",
      "type": "function"
    },
    {
      "inputs": [
        {
          "internalType": "uint256",
          "name": "",
          "type": "uint256"
        }
      ],
      "name": "tasks",
      "outputs": [
        {
          "internalType": "bytes32",
          "name": "actionHash",
          "type": "bytes32"
        },
        {
          "internalType": "uint256",
          "name": "votesForBlacklist",
          "type": "uint256"
        },
        {
          "internalType": "bool",
          "name": "isResolved",
          "type": "bool"
        }
      ],
      "stateMutability": "view",
      "type": "function"
    },
    {
      "inputs": [],
      "name": "webOfTrust",
      "outputs": [
        {
          "internalType": "contract WebOfTrust",
          "name": "",
          "type": "address"
        }
      ],
      "stateMutability": "view",
      "type": "function"
    }
  ],
  "bytecode": "0x608060405234801561000f575f80fd5b5060405161080538038061080583398101604081905261002e91610079565b5f80546001600160a01b039384166001600160a01b031991821617909155600180549290931691161790556100aa565b80516001600160a01b0381168114610074575f80fd5b919050565b5f806040838503121561008a575f80fd5b6100938361005e565b91506100a16020840161005e565b90509250929050565b61074e806100b75f395ff3fe608060405234801561000f575f80fd5b506004361061007a575f3560e01c80637c20aeba116100585780637c20aeba146100ff5780638d97767214610112578063e4245a3114610142578063e4e3967814610155575f80fd5b806301dbd0f81461007e5780632170a8f3146100ad57806343859632146100c2575b5f80fd5b5f54610090906001600160a01b031681565b6040516001600160a01b0390911681526020015b60405180910390f35b6100c06100bb36600461063b565b610168565b005b6100ef6100d0366004610652565b600360209081525f928352604080842090915290825290205460ff1681565b60405190151581526020016100a4565b6100c061010d36600461069b565b610254565b61012561012036600461063b565b610492565b6040805193845260208401929092521515908201526060016100a4565b6100c061015036600461063b565b6104c6565b600154610090906001600160a01b031681565b60028054604080516060810182528481525f60208083018281528385018381526001870188559690925291517f405787fa12a823e0f2b7631cc41b3ba8828b3321ca811111fa75cd3aa3bb5ace600386029081019190915590517f405787fa12a823e0f2b7631cc41b3ba8828b3321ca811111fa75cd3aa3bb5acf82015593517f405787fa12a823e0f2b7631cc41b3ba8828b3321ca811111fa75cd3aa3bb5ad0909401805460ff19169415159490941790935551838152909182917fd7634eb241af278b842df0c14f3313d5a6b0517f382fa0988194c6d741c0f06191015b60405180910390a25050565b5f54604051636731764760e01b81523360048201526001600160a01b0390911690636731764790602401602060405180830381865afa158015610299573d5f803e3d5ffd5b505050506040513d601f19601f820116820180604052508101906102bd91906106be565b6103055760405162461bcd60e51b81526020600482015260146024820152732737ba1030b71030b1ba34bb329036b2b6b132b960611b60448201526064015b60405180910390fd5b60025482106103485760405162461bcd60e51b815260206004820152600f60248201526e125b9d985b1a59081d185cdac81251608a1b60448201526064016102fc565b5f6002838154811061035c5761035c6106e0565b5f9182526020909120600390910201600281015490915060ff16156103bb5760405162461bcd60e51b815260206004820152601560248201527415185cdac8185b1c9958591e481c995cdbdb1d9959605a1b60448201526064016102fc565b5f83815260036020908152604080832033845290915290205460ff16156104145760405162461bcd60e51b815260206004820152600d60248201526c105b1c9958591e481d9bdd1959609a1b60448201526064016102fc565b5f8381526003602090815260408083203384529091529020805460ff19166001179055811561045457600181018054905f61044e836106f4565b91905055505b6040518215158152339084907fe71fcdac32df1877c1700e7bda2a03157e20993363a28fc35ac495cefc76e4d49060200160405180910390a3505050565b600281815481106104a1575f80fd5b5f91825260209091206003909102018054600182015460029092015490925060ff1683565b60025481106105095760405162461bcd60e51b815260206004820152600f60248201526e125b9d985b1a59081d185cdac81251608a1b60448201526064016102fc565b5f6002828154811061051d5761051d6106e0565b5f9182526020909120600390910201600281015490915060ff161561057c5760405162461bcd60e51b815260206004820152601560248201527415185cdac8185b1c9958591e481c995cdbdb1d9959605a1b60448201526064016102fc565b600381600101541061063757600154815460405163e67f422160e01b81526001600160a01b039092169163e67f4221916105bc9160040190815260200190565b5f604051808303815f87803b1580156105d3575f80fd5b505af11580156105e5573d5f803e3d5ffd5b50505060028201805460ff1916600190811790915582546040518593507f29dd4c2456e33743521ee95ede4ab034351347396e206001ee314d9652316238926102489282521515602082015260400190565b5050565b5f6020828403121561064b575f80fd5b5035919050565b5f8060408385031215610663575f80fd5b8235915060208301356001600160a01b0381168114610680575f80fd5b809150509250929050565b8015158114610698575f80fd5b50565b5f80604083850312156106ac575f80fd5b8235915060208301356106808161068b565b5f602082840312156106ce575f80fd5b81516106d98161068b565b9392505050565b634e487b7160e01b5f52603260045260245ffd5b5f6001820161071157634e487b7160e01b5f52601160045260245ffd5b506001019056fea26469706673582212209770a7e6ba301e0ebaf3467d18ea4efc7a0e600e2fd1081b3696fafaa9dd2f0464736f6c63430008180033",
  "linkReferences": {},
  "deployedLinkReferences": {},
  "immutableReferences": {},
  "inputSourceName": "project/contracts/ReviewOracle.sol",
  "buildInfoId": "solc-0_8_24-c75059c23b07cbcf015fcc30a733688c3def0ea0"
}